:020000040800F2
:1000000000000420A16F0108A16F0108A16F010881
:10001000A16F0108A16F0108A16F01080000000095
:10002000000000000000000000000000A16F0108B7
:10003000A16F010800000000A16F0108A16F010875
:10004000A16F0108A16F0108A16F0108A16F01084C
:10005000A16F0108A16F0108A16F0108A16F01083C
:10006000A16F0108A16F0108A16F0108A16F01082C
:10007000A16F0108A16F0108A16F0108A16F01081C
:10008000A16F0108A16F0108A16F0108A16F01080C
:10009000A16F0108A16F0108A16F0108A16F0108FC
:1000A000A16F0108A16F0108A16F0108A16F0108EC
:1000B000397A0008A16F0108A16F0108A16F01083A
:1000C000A16F0108A16F0108A16F0108A16F0108CC
:1000D000A16F0108A16F0108A16F010835C30008D5
:1000E000A16F0108A16F0108A16F0108A16F0108AC
:1000F000A16F0108A16F0108A16F0108A16F01089C
:10010000A16F0108A16F0108A16F0108A16F01088B
:10011000A16F0108E5C30008A16F0108A16F0108E4
:10012000A16F0108A16F0108A16F0108A16F01086B
:10013000A16F0108A16F0108A16F0108A16F01085B
:10014000A16F0108A16F0108A16F0108A16F01084B
:10015000A16F0108A16F0108A16F0108A16F01083B
:10016000A16F0108A16F0108A16F0108A16F01082B
:10017000A16F0108A16F0108A16F01080000000034
:10018000A16F0108A16F0108A16F0108A16F01080B
:10019000A16F0108A16F0108A16F0108A16F0108FB
:1001A000A16F0108A16F0108A16F0108A16F0108EB
:1001B000A16F0108A16F0108A16F0108A16F0108DB
:1001C000A16F0108A16F010800000000A16F0108E4
:1001D000A16F0108A16F0108A16F0108A16F0108BB
:1001E000A16F0108A16F0108A16F0108A16F0108AB
:1001F000A16F0108A16F01080348044B834202D09C
:10020000034B03B1184770477C0900207C0900208C
:100210000000000005480649091A891001EBD17158
:10022000491002D0034B03B1184770477C090020E6
:100230007C0900200000000010B5064C237843B96B
:10024000FFF7DAFF044B13B10448AFF3008001233A
:10025000237010BD80090020000000000C28050854
:1002600008B5044B1BB104490448AFF30080BDE856
:100270000840CFE700000000840900200C28050892
:10028000A3F5803A704700BF154B002B08BF114BF8
:100290009D46FFF7F5FF00218B460F461148124A95
:1002A000121A17F0FDFE0C4B002B00D098470B4B99
:1002B000002B00D098470020002104000D000B48BF
:1002C00017F0ECFD17F01EFE2000290008F058FB87
:1002D00017F0EAFD00000800000000000000000028
:1002E00000000000800900204C140120D17E01088C
:1002F000F8B504460D4600F036FA04F5CC772946E9
:1003000004F5987000F006FC002304F509713A46E4
:10031000A4F88C31C4E9643322F8023B8A42FBD151
:100320004FF0000204F50E76C4F824320025A4F83C
:10033000283284F82A2204F52272A4F82C32C4E967
:100340008C33334643F8045B9A42FBD14FF48073FD
:10035000C4F88C52C4F890520B20A4F888320023C1
:10036000C4F8985284F89432A4F8AC3284F8AE32CF
:10037000C4F8B03284F8B432C4F89C52C4F8A05225
:10038000C4F8A452C4F8A85217F052FD3023C4F8A0
:1003900024022046A4F88C310B4BC4F89071C4F8A9
:1003A00094310723C4F83062A4F82C32074BC4F808
:1003B0009852C4F83432C4F89C52C4F8A052C4F81D
:1003C000A452C4F8A852F8BD040000206400002024
:1003D00030B5B0F828220346D0F82442551CA05C62
:1003E000A3F82852A154B3F828220A2A84BF002275
:1003F000A3F8282230BD90F82A3280F82A125B1A1E
:1004000058425841704738B5B0F8AC2204460D4602
:10041000052A03D149B3012380F8AE32002DB4F888
:10042000B03216BF80210021551C41EA5301B4F8B7
:10043000B23218BFADB20133A4F8B012A4F8AC5276
:100440009BB294F8AE52A4F8B2324DB37E2912D0CA
:10045000FE294FF000050CD1A4F82C5184F8B452B9
:1004600084F8AE52A4F8B25203E084F8AE12A4F8B5
:10047000AC12284638BDB4F82C31102B04D92046D4
:1004800000F08CF9054610B90025A4F82C51012381
:1004900084F8B432002384F8AE32A4F8B232E8E72C
:1004A00094F8B422012A04D0022AE2D1082BE0D128
:1004B00004E0082BDDD1022384F8B432204600F09A
:1004C0005FF9CFE700F5987000F016BBD0EDA47A85
:1004D0009FED0A7AF4EEC77AF1EE10FA05D80123FF
:1004E00080F8943290F894027047B0EE087AF4EEF7
:1004F000C77AF1EE10FAF5DB0023F1E79999193F7D
:10050000D0F8A43200F52B721649C0F8A832D0F802
:10051000A032C0F8A432D0F89C32C0F8A032D0F893
:10052000983280EDA60AC0F89C3200F52773B3EC30
:10053000017AF1EC016AD0EDA67A9342E6EEC77A31
:10054000C0EDA67AF3D1084B00F526709FED070A9F
:10055000F0EC017AB3EC017A9042A7EE270AF7D1CA
:10056000704700BFC4860108D4860108000000005F
:1005700010B52DED028B90F8882282B0044690F8D9
:1005800089328A42D0EDA37AB2EE047A01D1102BDF
:1005900045D9F4EEC77A9FED2F8AB1EE040A84F8AC
:1005A000881201AA6946F1EE10FA04F50B70C2BF79
:1005B000B3EE047A77EEC77AC4EDA37A07EE903AE9
:1005C000D4EDA36A102BF8EE677A4FF0010388BFD1
:1005D000B0EE408A86EEA77A8DED007A17F096F895
:1005E0009DED000A2046B5EEC00AF1EE10FA4CBFB0
:1005F00038EE400A30EE080AFFF782FFB6EE007AC6
:10060000D4EDA37A0123DDED016A84EDA40AE6EEC0
:10061000C77A84F88932C4EDA37A00200EE0F4EEA4
:10062000C77AF1EE10FAF8DDB3EE047A013380F800
:10063000893277EEC77AC0EDA37A0120B7EE007A4F
:10064000D4EDA37A77EE877AC4EDA37A02B0BDEC3D
:10065000028B10BD000000002DE9F04F85B04FF077
:10066000000A054617460DF104090DF108081E465B
:1006700000F5987002234A4600F03CFA574511D025
:1006800039F81A402846E443C4F3C0342146FFF742
:100690009FFE6040C0B24000013828F81A000AF1FD
:1006A000010AEBE741464FF000080DF10C0A022366
:1006B000C146C346524605F5C67016F0C3FEB8459E
:1006C0002FD03AF818402846E443C4F3C0342146FA
:1006D000FFF74EFF60B195F82A12284685F82A42A6
:1006E0000B1B59425941B9F1000F04D0FFF78BFEA3
:1006F00008F10108E3E7FFF786FE81460028F7D0FE
:100700004FF496722946304617F030FCB5F82C317C
:10071000A6F82C31B5F82E31A6F82E31A5F82CB15B
:10072000E6E7484605B0BDE8F08F30B50023044643
:1007300000F5967504F8013BAC42FBD1A0F82C31D2
:10074000A0F82E3100239CB2A2420BD9B3F5957FBD
:1007500008D0B0F82C41651CA0F82C51CD5C0133B9
:100760000555F0E730BD024600F59671002302F80A
:10077000013B9142FBD1A0F82C31A0F82E317047FB
:10078000B0F82C31B3F5967F1FBF5A1CA0F82C216E
:10079000C154012008BF00207047000070B5B0F8B8
:1007A0002C114FF0FF330022104E8C1E551C92B2BC
:1007B000944209D9825C5A40C3F30723D2B236F877
:1007C000122053402A46F1E7DB43045D9BB2DAB2C4
:1007D000944209D1014411F8012CB2EB132F03D13B
:1007E000A0F82E31012070BD0020FCE7E88601084A
:1007F000B0F82C214FF0FF3370B5044616180D4D9C
:10080000B44209D014F8011B5940C3F30723C9B2FD
:1008100035F811104B40F3E7DB43911C9BB2A0F875
:100820002E3183540132C3F30723A0F82C1192B266
:10083000835470BDE886010870B5002500F10C06F0
:10084000044600F5A6730580C0E90155304620F83E
:10085000025B9842FBD10321FFF74AFD062104F217
:100860000440FFF745FD092104F2BC60FFF740FD9D
:100870008223A4F87459204623800A4B6660A36043
:100880001E23C4F87859C4F87C39074BC4F8805942
:10089000C4F884394BF24033A4F888390F2384F824
:1008A0008A3970BD800000208000000190F8860920
:1008B00070472DE9F041CEB20F4605461446F11EB1
:1008C00000F5A6709846C4EB041449B2FFF7FAFD90
:1008D000394605F204402401FFF7F4FDF11C05F24E
:1008E000BC6049B2FFF7EEFDC5F87C4985F8848904
:1008F000BDE8F08190F88A1990F8883990F8872936
:100900004B40534090F889291A4480F88839D2B274
:1009100080F8892901EB5202534080F88A397047E8
:1009200090F8873990F88A1990F8882901334A405D
:10093000DBB280F88739534090F8892980F88839EC
:100940001A44D2B280F8892901EB52025340DBB23B
:1009500080F88A39184670472DE9F041CEB0044638
:100960009046022301AA04F5A67716F06BFDD4F891
:10097000783902A80133C4F87839FFF7F4FE02ABE6
:10098000424601A93846FFF767FED0B1BDF83631BF
:10099000B4F874299A4203D1D4F87829022A0CD9E0
:1009A000BDF8342102A9A4F874390023023A4C4856
:1009B000C4F8783992B20AF0E5FA4A4948480AF090
:1009C00095FB04F2044602AB424601A93046FFF70C
:1009D00043FED0B1BDF83631B4F874299A4203D140
:1009E000D4F87829022A0CD9BDF8342102A9A4F838
:1009F00074390023023A3A48C4F8783992B20AF0BE
:100A0000C1FA394936480AF071FB04F2BC6502AB01
:100A1000424601A92846FFF71FFED0B1BDF8363186
:100A2000B4F874299A4203D1D4F87829022A0CD94F
:100A3000BDF8342102A9A4F874390023023A2848E9
:100A4000C4F8783992B20AF09DFA284924480AF08D
:100A50004DFBD4F88039D4F87C2902339342C4F892
:100A6000803922D300233846C4F88039FFF72EFDA1
:100A700007463046FFF72AFD06462846FFF726FDC3
:100A800094F8853905460FB906B988B153B90121E3
:100A9000174806F06DFA0121154806F075FA012392
:100AA00084F88539002384F886394EB0BDE8F0819A
:100AB0004BB101460E4806F05BFA29460C4806F099
:100AC00063FA84F8855994F884592046FFF728FF83
:100AD000854234BF0020012084F88609E5E700BF85
:100AE000C0D90020E8880108FB8801080E890108A8
:100AF000708A002016F0A6BC03460922063123F8AE
:100B00000C2BC9B24360024B53F82130836070470D
:100B100084010020002300F10C0210B5044603807C
:100B2000C0E901335C3022F8023B9042FBD1204601
:100B3000FFF7E2FF10BD024600F51671002302F830
:100B4000013B9142FBD14FF4B472A0F85832A0F8A7
:100B50005A32A0F85C22A0F85E3280F8603270470A
:100B6000F0B58DB0B0F85E321424104F02AE3246AC
:100B700037F91350B9B1AD1006339BB2013C6D107B
:100B8000772B26F8025B84BF783B9BB214F0FF04FE
:100B9000EED1A0F85E320B2114230548009406F034
:100BA000BFFD0DB0F0BD0B33E7E700BF3289010890
:100BB000708A002070B5B0F858320446002B31D04E
:100BC000194B1B782BB3194806F0B4F9184E05469B
:100BD000142D27D9B4F85A322046143DD91003F009
:100BE00007020133ADB2615CB25CA4F85A32114223
:100BF00014BF01210021FFF7B3FFB4F85A22B4F863
:100C000058329A42E4D30023A4F85A32A4F8583256
:100C100008E0B0F85A32002BD5D10648FFF746FE5F
:100C20000028D0D170BD00BF31070020708A00209D
:100C300021890108680A002001EB41018900A0F820
:100C40005C127047B0F8580200280CBFFF2000204B
:100C5000704729B990F8603283F0010380F8603260
:100C600090F86002704700002DE9F043CDB00446D3
:100C7000664D6846FFF759FD6846FFF7B9FD00234A
:100C8000B4F85CC2A4F85832A4F85A3284F860323E
:100C9000A4F85E329AB2944517D994F86002B4F879
:100CA000582280F0010002F00701D61084F860029B
:100CB0006F5CA15D30B139430132A1550133A4F815
:100CC0005822E7E721EA0701F6E7504F08223E469F
:100CD00016F8013B204613F07E0F14BF01210021BE
:100CE000FFF7B7FFB4F85832002853D0D91003F0FB
:100CF0000700615C285C0143013AD810013392B2CD
:100D00002154A4F85832002AE2D19146DFF800813C
:100D100093B2BDF82C01B3EBC00F19464DD2C2F30C
:100D2000CC0103F0070320461DF8016018F80330DA
:100D30001E4014BF01210021FFF78BFFB4F8583289
:100D400080B3D91003F00700615C285C0143D81020
:100D50002154591C89B2A4F85812C6B109F10106F0
:100D6000F6B2052E13D194F86002CE1001F00701FF
:100D700080F0010015F801C084F86002A15DC8B1DF
:100D80004CEA0101A15502330026A4F85832013281
:100D9000B146BDE703F00701685CD910615C21EA48
:100DA0000001A9E703F00701685CD910615C21EA42
:100DB0000001CCE721EA0C01E4E7082217F8013B27
:100DC000204613F07E0F14BF01210021FFF741FFE1
:100DD000B4F8583290B1D91003F00700615C285C78
:100DE0000143013AD810013392B22154A4F8583289
:100DF000002AE3D110464DB0BDE8F08303F00701AF
:100E0000685CD910615C21EA0001EAE721890108E8
:100E100029890108002310B5044603804360083087
:100E200004F12A01024602F8013B9142FBD184F809
:100E30002A302222024917F099F8204610BD00BF3F
:100E4000E58A010830B5C1EBC1010E4D847D6B18F8
:100E5000695C24F00F045A7801F00F01C2750C434D
:100E60009A7884750276DA7842761A7982765A7997
:100E70009B79C276027F23F00F0302F00F021A4320
:100E8000027730BD2B8A010830B5C1EBC1010E4D90
:100E9000847D6B18695C24F00F045A7801F00F010F
:100EA000C2750C439A7884750276DA7842761A799C
:100EB00082765A799B79C276027F23F00F0302F083
:100EC0000F021A43027730BD558A010810B5044657
:100ED0002E4802F06BFB2D4802F0D7F9002835D0E0
:100EE0006378013B032B4FD8DFE803F00217313C56
:100EF0000121264802F09CF909222549234802F0E5
:100F0000BDF822222349214802F00AFA01211F4894
:100F100002F0FEF80223637018E094F82A102046CD
:100F2000FFF790FF222204F10801184802F0F8F9B7
:100F300094F82A30052B06D1002384F82A30237830
:100F400023B90323E7E7013384F82A3010BD2222B6
:100F500011490E4802F0E4F90C4802F08BF9042321
:100F60006060D8E7094802F085F963681E3398424B
:100F7000ECD90021054802F0CBF8044802F074F9DE
:100F8000002384F82A30C6E70023C4E784580020F1
:100F9000228A01087F8A0108A18A010810B5044647
:100FA0001D4801F0F7F81C4801F0A4F968B1637816
:100FB000022B0BD0032B24D0012B29D1222217493D
:100FC000154801F09FF90223637010BD94F82A10B0
:100FD0002046FFF759FF222204F108010E4801F0D4
:100FE00091F994F82A30052B07D1002384F82A3090
:100FF0002378002BE9D10323E6E7013384F82A3074
:10100000E3E722220649044801F07CF90023DBE7EC
:1010100000236370F2E700BF98310020C38A010803
:10102000078B010808B5124B1B785C3B062B1DD8BB
:10103000DFE803F0181C14041C1C0400017841B103
:101040000C48012102F06EF80A48BDE8084002F0A1
:10105000ADBA0848BDE8084002F064B8BDE80840F1
:10106000FFF734BFBDE80840FFF798BF08BD00BFD9
:10107000A99A002084580020012A11D10978012959
:101080000CBF0123002303700CD1437853B9064AE7
:10109000127802F0FD025C2A00D1417018467047B8
:1010A0000423FBE70023F9E7A99A0020002300F1BD
:1010B0000C0200F13C0103600371836022F8023BE3
:1010C0009142FBD14FF0000380F83C3070470000A4
:1010D000836837B55B00002990F83C200446B8BF10
:1010E00043F001038360531C00EB4202DBB2172B79
:1010F00080F83C30918184BF002380F83C308068C8
:1011000020F07F432D4858400BF01CFB022825D8C7
:1011100004F10C0104F13C054FF47A53284A31F9EB
:10112000020B8242B8BF02468342A8BF03468D42EB
:10113000F5D1D11A052911DD00218DF802202148B1
:101140008DF8001011121A128DF804308DF801106C
:1011500069468DF80320052209F078FFA06820F089
:101160007F43194858400BF0EDFA022824D804F1C7
:101170000C014FF47A533C34114A31F9020B82428C
:10118000B8BF02468342A8BF03468C42F5D1D11AAC
:10119000052911DD80218DF802200A488DF8001004
:1011A00011121A128DF804308DF8011069468DF86D
:1011B0000320052209F04AFF03B030BD68B4AA003D
:1011C00080C1FFFFC0D90020974B55002DE9F041A9
:1011D00004460E460025174643F23338ABB29F4211
:1011E00021D936F915102379CA0F934209D0236803
:1011F000B3F5004F2ABF6FF4CC7003F299131B189C
:1012000023602368227103EB0802B2F5803F02D20B
:1012100022600135E2E7A3F54C432046CD3B236035
:10122000FFF756FFF5E7BDE8F0810022027042802B
:101230007047000030B5044685B07E4803F094F94D
:10124000237873B37B4803F065FA042829D901AAEF
:1012500079480C231146013B10F8015B13F0FF03A2
:1012600002F8015BF7D162881520B2FBF0F300FBB6
:1012700013239BB243B1012A15D130238DF80D30D1
:101280004DF60263ADF80E300C226A4803F090FA76
:10129000638840F276210133B3FBF1F201FB123394
:1012A000638005B030BD022A05D134238DF80D309E
:1012B0004DF61963E6E7032A05D131238DF80D3089
:1012C0004DF66F63DEE7042A05D11F238DF80D303C
:1012D0004FF22B63D6E7052A05D132238DF80D3066
:1012E0004BF22233CEE7062A05D124238DF80D30A8
:1012F0004EF22A03C6E7072A05D133238DF80D30B5
:101300004BF23B33BEE7082A01D1502354E0012BB6
:1013100005D125238DF80D3049F24F33B2E7022B6A
:1013200005D170238DF80D304DF60B23AAE7032B62
:1013300005D125238DF80D304DF21D63A2E7042B56
:1013400005D133238DF80D304BF21B339AE7052B73
:1013500005D125238DF80D304DF26F7392E7062BE2
:1013600001D13923E6E7072B05D125238DF80D3070
:101370004CF20C7386E7082B05D150238DF80D3005
:101380004DF26F037EE7092A4DD0092B05D12523A5
:101390008DF80D304DF21E0374E70A2A43D00A2B54
:1013A00005D121238DF80D304CF20C236AE70B2A6E
:1013B00039D00B2B05D125238DF80D304BF26F332F
:1013C00060E70C2A2FD00C2B05D13D238DF80D3072
:1013D0004DF2027356E70D2A25D00D2B01D125239E
:1013E00064E70E2A1FD00E2B8FD00F2A1BD00F2B95
:1013F00005D125238DF80D304DF21B6342E7102AED
:1014000011D0102B05D123238DF80D3043F61B236B
:1014100038E7112A07D0112B05D121238DF80D3083
:101420004FF225532EE716238DF80D304FF2295336
:1014300028E700BF407A0020298B0108012A38B52F
:10144000044616D10B78012B03780CBF012500252B
:1014500009D12BB9438029220749084803F082F9B2
:101460000020257038BD002BFAD0044803F0C6F9DF
:10147000F6E70420F6E700BF358B0108407A00202C
:1014800000224FF4C061C0E90022816002737047FE
:101490002DE9F341444E0446027B33789A4268D0EA
:1014A000663B40F6BF12052B55D8DFE803F0030773
:1014B0000A0D10134FF46F7323800CE040F20F43BA
:1014C000FAE740F2DF43F7E740F26163F4E740F602
:1014D0001F03F1E70280238893423ED040F61F02AB
:1014E00093423CD040F2616293423AD040F2DF42F4
:1014F000934238D040F20F42934236D0B3F56F7F1B
:101500004ED10523294F17EBC30749D07B8860686C
:10151000638008B116F0B6FC00256088A84640003C
:1015200016F086FC60606288ABB29A421FD94046D2
:1015300016F064FCB4F90830626883FB0001C30F45
:1015400043EA4103A9B2013503F30F0322F8113036
:101550007B689844E7E70023AEE70023D2E7012346
:10156000D0E70223CEE70323CCE70423CAE733788E
:101570002373A37AA3B10E484FF0000805F0DAFCFC
:101580000B4F05466388AB420AD2CDF8008038463F
:101590006268317806F0C4F86388ED1AADB2F1E7FD
:1015A00002B0BDE8F08100BFA99A0020608B01085D
:1015B000708A0020012A06D10B785A1E53425341EB
:1015C0008372002070470420704700220270704729
:1015D00010B50446084807F003F823785BB10648C5
:1015E00007F0B1F8012806D9312204490248BDE8C4
:1015F000104007F0B0B810BDAC950020908B0108EA
:10160000012A06D10B785A1E534253410370002021
:101610007047042070470022027042708270704749
:1016200010B50446104807F037FE0F4807F0FBFEE0
:10163000A8B16378012B13D1A17831220B4BC1EBF8
:10164000C1010948C1EBC101194407F0F4FEA378B8
:10165000013303F00303A370237803B9637010BD53
:1016600000236370A370FAE728AA0020C18B010849
:10167000012A0BD10A78012A0CBF01230023037031
:1016800006D1437823B94270184670470423FBE71C
:101690000023F9E7002202704270704710B504463B
:1016A0000F4808F0B7FC0E4808F04EFD68B16378AB
:1016B000012B03D0022B09D0002305E0D9220949D0
:1016C000074808F049FD0223637010BDD92206497E
:1016D000034808F041FD2378002BF5D00123F3E700
:1016E00000D2002026030020FF030020012A0BD196
:1016F0000A78012A0CBF01230023037006D1437826
:1017000023B94270184670470423FBE70023F9E72A
:10171000002202707047000008B5037853B10648F4
:1017200005F008FCA52805D9AA210448BDE8084011
:1017300008F096BD08BD00BF708A002080D7002049
:10174000012A06D10B785A1E5342534103700020E0
:101750007047042070470022C0E900224FF6FF7254
:10176000826070472DE9F74304460E460025174670
:1017700045F6BF58DFF85C90ABB29F4226D936F8E9
:1017800015206189636891422189134438BF6281C1
:101790009142636088BF2281226801324245226003
:1017A00012D9A1684846B3FBF2F309BA5BBA062224
:1017B00000916946ADF8043009F070FC0023C4E9DB
:1017C00000334FF6FF73A3600135D5E703B0BDE8E2
:1017D000F08300BFC0D90020024600F57A710023D3
:1017E00002F8013B9142FBD1A0F8E833A0F8EA33BC
:1017F00080F8EC33704700002DE9F341B0F8E8338E
:101800000446002B3BD01F4805F094FB1E4F0546B5
:10181000DFF87C801B4E182D31D9B4F8EA333046FE
:10182000183DD91003F00702ADB2BA5C635C6121C8
:10183000134015BF00230093144A182316BF0093CA
:101840004246182305F06CFF94F8EC330133DBB209
:10185000312B84F8EC3307D9B4F8EA330133A4F818
:10186000EA33002384F8EC33B4F8EA23B4F8E8331D
:101870009A42D0D30023A4F8EA33A4F8E83302B0A4
:10188000BDE8F081708A0020988E0108D8040020FD
:10189000380A00202DE9F74F0E46904600214FF4FC
:1018A0007A72044616F0FCFB0823DFF8C4E0A4F8C3
:1018B000E8330023A4F8EA3384F8EC33DDB245457D
:1018C00041DA00210C20CAB242430EEB02001EF89E
:1018D0000220B2B3775D01319742F3D190F808B09E
:1018E0004FF0000C4FF0004501905FFA8CF1B4F816
:1018F000E8238B4525D902F007071A484FEAE20989
:101900000CF1010C10F807A0019814F809104768B1
:1019100035EA07000CBF41EA0A0121EA0A0104F88E
:10192000091040F2E2318A4206D900230420A4F8CB
:10193000E83303B0BDE8F08F01326D08A4F8E82366
:10194000D3E70133BAE7B4F8E823082AEDD005322B
:101950000548064992B2A4F8E82312B209F0A8FE9D
:101960000020E6E7988E0108C0D90020A08E01086B
:10197000888C01080023A0F8E833A0F8EA3380F847
:10198000EC337047002300F1140200F65431036178
:10199000C0E90033C0E9023322F8023B8A42FBD19E
:1019A00042F20F72C0F8543BC0F8583B0021A0F837
:1019B0005C2B00F5B552C0F8603BC0F8643B1C32AC
:1019C000C0F8683BC0F86C3BC0F8703BC0F8743B93
:1019D000A0F8783B4FF0000380F87A3B00F67C33A8
:1019E00023F8021B9A42FBD170470023C0F8603BEA
:1019F00080F8753B80F8763B80F8783BC0F8583B20
:101A000042F20F73A0F85C3B704700002DE9F74FDE
:101A1000BDF83040BDF9388004EB4202BDF934A076
:101A2000DFF88C90C8F1000B92B20192019AA242A9
:101A30003BD000EB4102671C4FEAE40E04F00706BE
:101A4000958ABFB2023413F80EC0A5EB0A05FA104E
:101A500007F0070719F806602DB219F80770A4B24D
:101A60005D4506DA2CEA060603F80E609D5C2F43FE
:101A700008E0002D11DA2CEA060603F80E609D5CE2
:101A800025EA07079F544A1D92B2B2F5B46F24BFEE
:101A9000A1F29B518AB21146C8E74CEA06064545B9
:101AA00003F80E609D5CE2DAEAE703B0BDE8F08F70
:101AB000BC8E0108B0F8543B50F823302DE9F04FAC
:101AC00023F07F430446904889B0884658400AF086
:101AD00039FEC31E8146DBB2122B40F2B780B4F848
:101AE000563B0022894D4FF6FD7A03F22D511646E2
:101AF000DFF82CE24FF0030B89B2B1F5B46F28BFC9
:101B0000A3F173014FF47A5328BF89B204930846B6
:101B100004EB4007049BB7F91470BD42B8BF3D46C3
:101B2000BB42A8BF3B46B9F1020F04938ABF784B72
:101B300012F90EC012F903C0BCF1010F00F0898048
:101B4000BCF1030F05D0BCF1FF3F40F084803E4460
:101B500001E017FB0A66471D0132BFB2B7F5B46F4B
:101B60002ABFA0F29B50384680B2182AD0D1D4F8B0
:101B7000600BB0426ADA049B0DF1180A20462B4430
:101B80005B101FB2ED1A44F631435D43042345F365
:101B9000CF3500935346CDE90175FFF737FFB9F113
:101BA000020F5C4969D84FF0000B5B4AD94611F827
:101BB000013B1AF80BC00BF1010B12F8010B03EA01
:101BC0000C030591049258400AF0ACFDBBF1070FDD
:101BD0008144DDE904215FFA89F9E8D1B9F1030F05
:101BE00034D8B8F1000F39D00023A4F8725BA4F800
:101BF000705BA4F86E5BA4F86C5BA4F86A7BA4F835
:101C0000687BA4F8667BA4F8647B84F8743B40236B
:101C1000C4F8606B84F8753BB4F8563B03F21A4283
:101C2000A4F8583B92B2B2F5B46F28BFA3F5C372C3
:101C3000A4F85A2B03F20D1292B2B2F5B46F2ABF78
:101C4000A3F29343A4F85C2BA4F85C3B09B0BDE875
:101C5000F08FF61B7FE717FB0B667CE794F8743B6D
:101C600004EB43020133DBB2A2F86C5BA2F8647BA5
:101C7000032BCAD984F8748BC9E74FF0000B274AAD
:101C8000D94611F8013B1AF80BC00BF1010B12F801
:101C9000010B03EA0C030591049258400AF042FD3F
:101CA000BBF1070F8144DDE904215FFA89F9E8D12E
:101CB000B9F1030FCAD8B8F1000F16D00023A4F869
:101CC000725BA4F8705BA4F86E5BA4F86C5BA4F87C
:101CD0006A7BA4F8687BA4F8667BA4F8647B84F82C
:101CE000743BC4F8606B202394E794F8743B04EBD6
:101CF00043020133DBB2A2F86C5BA2F8647B032BD6
:101D0000EDD984F8748BECE76E28760080C1FFFF74
:101D1000F18E0108C48E0108CB8E0108D28E010815
:101D2000D98E010880F8771B70470000B0F85A3B45
:101D30000A463C3370B49BB24FF4077500245E1C16
:101D400000EB4301013DB6B2B1F87C1BADB2B6F574
:101D5000B46F0C442ABFA3F29F5333469BB2002DAD
:101D6000EDD14FF4077301210648B4FBF3F4C4F33B
:101D7000072382F8234082F82230242370BC08F025
:101D800081BE00BFC0D9002070B50446B0F8560B24
:101D900000298EB004EB40039982A3F87C2BB4F8A1
:101DA000542B54F822304FEA4303B8BF43F00103E9
:101DB00044F8223094F8783B002B6AD10121204668
:101DC000FFF778FEB4F85C2BB4F8563B934240F032
:101DD0009680B4F9662B03F21231B4F9645B2046A5
:101DE000B4F96C6B89B21544B4F9682BB1F5B46FD2
:101DF0001544B4F96A2B28BFA3F28E214FF00803D3
:101E00001544B4F96E2B28BF89B200931644B4F977
:101E1000702B45F38F0505AB1644B4F9722B1644AD
:101E200094F8752B46F38F068DF814208422CDE9A3
:101E30000156FFF7EBFD94F8753B402B40F0C08056
:101E400004A801F01DF80DF113030DF112020DF1BC
:101E5000150104A801F042F894F8772B9DF8123090
:101E60009A4247D100239DF8142084F8763B84F8E9
:101E7000793B9DF813301A438DF814200A2B00F299
:101E80009980DFE803F079698397979725565697ED
:101E90005600B4F8581B01F29F534A1C9BB292B2F1
:101EA000B3F5B46F24BF01F1FF339BB2B2F5B46F49
:101EB00024BFA1F29F5292B2934206D2984281D39C
:101EC00090423FF67FAF002179E79842F8D3FAE7D6
:101ED0002B46B4F9582B6449644800960AF051F92E
:101EE00005A92046FFF722FF022384F8783B002350
:101EF00084F87A3B0023C4F8603B84F8753BB4F85F
:101F0000563B94F8780B01339BB2B3F5B46F28BFFE
:101F10000023A4F8563BB4F8543B01339BB2042B86
:101F200088BF0023003018BF0120A4F8543B0EB036
:101F300070BD94F8783B022BDCD12B46B4F9582BBA
:101F40004B494A4800960AF01CF905A92046FFF7BC
:101F5000EDFE9DF81330CBE72B46B4F9582B4549DD
:101F6000009642480AF00DF905A92046FFF7DEFE6B
:101F7000012384F8783BBDE794F8783B012BF7D137
:101F800000962B46B4F9582B3B49EAE794F8783B86
:101F9000012BAFD12B46B4F9582B38490096334862
:101FA0000AF0EFF8204605A9FFF7C0FE2046FFF72C
:101FB0001CFD9FE700962B46B4F9582B3049EEE7FD
:101FC000202B12D12B46B4F9582B2E4927480096C6
:101FD0000AF0D7F805A92046FFF7A8FE002384F8E9
:101FE000763B0123A4F8783B84E794F8783B73B1FF
:101FF00094F8763B0133DBB20C2B84F8763B06D9A0
:102000001A48012108F070FD2046FFF7EEFC94F815
:10201000783B012B17D194F8793B05AA012113488D
:10202000042B8BBF202301338DF81430DBB28BBF20
:10203000002384F8793B84F8793B8DF8143022230F
:1020400008F020FD56E7022B7FF454AF94F87A3B5A
:10205000002B3FF44FAF43F0400305A920468DF815
:102060001430FFF763FE45E7098F0108C0D900204F
:102070003A8F01086C8F01089E8F0108D38F0108E9
:1020800009900108339001082DE9F04100240E4623
:102090000546174698462146444509D036F914109E
:1020A000284637F814200134FFF76EFE0146F3E7A7
:1020B0000248BDE8F04104F05BBF00BF708A002019
:1020C00070B5044600254FF4B97004F11C06258153
:1020D000208065816573257315F0AAFE04F13C0329
:1020E00032466060A561C4E9045522F8025B934260
:1020F000FBD104F2EC41002203F8012B9942FBD101
:10210000F023C4F8EC2400212022C4F8F034304637
:1021100015F0C6FF05232046237409236382024B72
:10212000C4E9053670BD00BF08050020F0B58FB0CA
:102130000A4600234FF4E37502A940F252564FF6C7
:10214000AE274FF63A6C02F0C004802C1DD0C02C94
:1021500018D0002C0CBF64463C4621F813400133D4
:102160009200042BD2B2EED104AA103014F088FFF2
:10217000002304AA022100931423054805F0D0FA95
:102180000FB0F0BD21F81360E9E721F81350E6E73E
:10219000708A002038B5B0F8EC340446E3B13C480E
:1021A00004F0C8FE0546142D45D9B4F8EE34204697
:1021B000143D5A1C2344ADB2A4F8EE2493F83C100D
:1021C000FFF7B4FFB4F8EE24B4F8EC349A42EAD343
:1021D0000023C4F8EC342EE0428903899BB2934279
:1021E00012D1037B3BB303882BB32A4B1B781BBB59
:1021F000D4F8F0245F20591C9BB29A4212D9234490
:1022000083F83C000B46F6E7438902899A4204D9D9
:10221000038942899B1A9BB2E6E7428901880389B8
:102220000B44F7E7A4F8EC240023A4F8EE34B4F848
:10223000EC34002BB3D138BD04F13C0304F15D0054
:1022400000212589628992B2AA4201D1227B72B112
:102250006568628992B2AA5C1A7021736289013240
:1022600092B2628162892588954200D861810133EA
:102270008342E6D1084A04F1840112F8010B03F805
:10228000010B8B42F9D14823A4F8EC34CCE700BF12
:10229000708A0020AA9A0020639001080C234FF452
:1022A000167203FB0121B1F5966F8ABF4FF4966356
:1022B000C0F8F014C0F8F0347047418903890288EF
:1022C0009BB28B4205D1037B002B0CBF1046002034
:1022D000704743890189994208D90389408910448C
:1022E000C01A80B2904288BF00207047438900899D
:1022F000181AF6E708B5FFF7E0FF2323B0FBF3F069
:10230000C0B208BD222AF8B504460D4624D1FFF715
:10231000D4FF202822D901231946227B02F0FF0096
:102320002AB161730133222BF7D10020F8BD666812
:102330002289EF5C92B2B7542289013292B2228193
:1023400022892688964200D820812089628992B20B
:102350008242E7D12173E5E70420E7E70520E5E7BE
:10236000002300F1140200F23C510361C0E9003384
:10237000C0E9023322F8023B9142FBD1C0F83C3560
:1023800042F20F72C0F84435C0F848354FF00003F0
:10239000A0F8402580F84C3570470023C0F844353C
:1023A000C0F84835C0F83C3542F20F73A0F840350C
:1023B000704700002DE9F74FBDF83040BDF9388077
:1023C00004EB4202BDF934A0DFF88C90C8F1000B99
:1023D00092B20192019AA2423BD000EB4102671CEB
:1023E0004FEAE40E04F00706958ABFB2023413F8F0
:1023F0000EC0A5EB0A05FA1007F0070719F80660EA
:102400002DB219F80770A4B25D4506DA2CEA06066B
:1024100003F80E609D5C2F4308E0002D11DA2CEAD2
:10242000060603F80E609D5C25EA07079F544A1DC7
:1024300092B2B2F5257F24BFA1F28F218AB2114654
:10244000C8E74CEA0606454503F80E609D5CE2DAF3
:10245000EAE703B0BDE8F08F8A900108B0F83C25A8
:10246000002950F822304FEA4303B8BF43F001037C
:102470002DE9F04F40F822300446B0F83E3591B0D7
:1024800000EB4303998250F822307A4823F07F43CF
:1024900058400AF057F9022800F28E80B4F83E3511
:1024A0001825DFF8E4E1002603F22121724F4FF6F0
:1024B000FD784FF0030989B2B1F5257F28BFA3F15C
:1024C00073014FF47A5328BF89B20A4604EB4200E5
:1024D0001EF901CBB0F914008742B8BF074683420A
:1024E000A8BF0346BCF1010F00F0BE80BCF1030F92
:1024F00005D0BCF1FF3F40F0B980064401E010FB7D
:102500000866501D013D80B2B0F5257F2ABFA2F2BA
:102510008F22024692B215F0FF05D7D1D4F8442598
:10252000B24249DA3B440DF11C0A182220465B10E6
:10253000DFF858B1A9460FFA83F8FB1A44F6314781
:102540005F43042347F3CF3700935346CDE9018718
:10255000FFF730FF494A12F8013B1AF8091009F158
:1025600001091BF8010B0B405840CDE904220AF089
:10257000D9F8B9F1070F0544049AEDB2EBD1032D58
:102580001AD83B4642463E493E4809F0C3FDB4F8DE
:102590003E35C4F8446503F20D12A4F84885A4F84A
:1025A0004A7592B2B2F5257F29BF6FF4C372A4F8C1
:1025B00040259B18A4F84035B4F84025B4F83E35C2
:1025C00093423BD1991D8422204689B2B1F5257FE3
:1025D00028BFA3F28E21B4F94A35029328BF89B2ED
:1025E000B4F9483501930823009307ABFFF7E2FEE7
:1025F00006A800F045FC0DF11B030DF11A020DF1C8
:102600001D0106A800F06AFC94F84C259DF81A30CC
:102610009A420CD19DF81B30032B08D1C32307AA83
:10262000002118488DF81C30222308F02BFA42F2C2
:102630000F73A4F840350023C4F84435B4F83E3590
:1026400001339BB2B3F5257F28BF0023A4F83E35A4
:10265000B4F83C3501339BB2042B88BF0023A4F8A7
:102660003C3511B0BDE8F08F361A4AE710FB096619
:1026700047E700BF6E28760080C1FFFF92900108F7
:10268000B8900108C0D90020A090010899900108D5
:1026900070B505460C4601EB4206B44205D034F94C
:1026A000021B2846FFF7DAFEF7E770BD80F84C15ED
:1026B000704710B50446002100F062F8012104F6CD
:1026C000546000F05DF8204610BD00002DE9F84F81
:1026D00006460024884691469A46204625469DF89F
:1026E00028B006F65467A3B29B451BD91AF80430EC
:1026F000042B15D0082B02D1304600F074F839F8BD
:102700001420304638F9141000F01EFA39F814205D
:1027100038F9141005463846013400F015FAE2E79E
:102720003846EAE7002D14BF294601460248BDE8B5
:10273000F84F04F01DBC00BF708A002038B5044675
:102740000D4600F0D5F9294604F65460BDE838403E
:1027500000F0CEB938B504460D4600F0CCF9294654
:1027600004F65460BDE8384000F0C5B910B5044621
:1027700000F043F804F65460BDE8104000F03DB8A6
:102780000023017000F1180200F5E4614361C0E923
:102790000133C0E9033322F8023B8A42FBD142F203
:1027A0000F72C0F82037C0F824370021C0F82C374A
:1027B000C0F83037C0F83437C0F83837C0F83C3785
:1027C000C0F84037C0F844374FF00003C0F828275E
:1027D00000F6526280F8483700F24A7323F8021B71
:1027E0009A42FBD170470023A0F82A37C0F820375F
:1027F000C0F82C3780F841377047002342F20F723F
:1028000080F8413780F8423780F84637C0F82037E3
:10281000C0F82437C0F82827C0F82C3770470000CC
:102820002DE9F74FBDF83040BDF9388004EB420286
:10283000BDF934A0DFF88090C8F1000B92B201928C
:10284000019AA24235D001F10C02671C4FEAE40E56
:1028500004F0070630F81250BFB2023413F80EC06D
:10286000A5EB0A05FA1007F0070719F806602DB264
:1028700019F80770A4B25D4506DA2CEA060603F8DB
:102880000E609D5C2F4308E0002D0ADA2CEA060654
:1028900003F80E609D5C25EA070705319F5489B255
:1028A000CEE74CEA0606454503F80E609D5CE9DA82
:1028B000F1E703B0BDE8F08FE4900108B0F82037ED
:1028C00000EB83035B682DE9F04F23F07F43044660
:1028D000804889B08846584009F034FFC31E8146BD
:1028E000DBB2122B40F29880B4F8221700224FF48A
:1028F0007A53794D73391646DFF8F0E14FF6FD7AD9
:1029000089B24FF0030B04930F4607F10C00049BB0
:1029100034F910008542B8BF05468342A8BF03467C
:10292000B9F1020F04938ABF6C4B12F90EC012F971
:1029300003C0BCF1010F72D0BCF1030F04D0BCF195
:10294000FF3F6ED1064401E010FB0A6601320537F5
:10295000182ABFB2D9D1D4F82C07B0425CDA049B54
:102960000DF1180A20462B445B101FB2ED1A44F6F5
:1029700031435D43042345F3CF3500935346CDE9FE
:102980000175FFF74DFFB9F1020F55495BD84FF0C4
:10299000000B544AD94611F8013B1AF80BC00BF151
:1029A000010B12F8010B03EA0C0305910492584045
:1029B00009F0B8FEBBF1070F8144DDE904215FFA9D
:1029C00089F9E8D1B9F1030F26D8B8F1000F2BD05F
:1029D0000023A4F83E57A4F83C57A4F83A57A4F8AB
:1029E0003857A4F83677A4F83477A4F83277A4F8E7
:1029F000307784F840374023C4F82C6784F8413797
:102A0000B4F82237A3F5C372A4F8243703F20D13E8
:102A1000A4F82627A4F8283709B0BDE8F08F361AA5
:102A200094E710FB0B6691E794F8403704EB430200
:102A30000133DBB2A2F83857A2F83077032BD8D98C
:102A400084F84087D7E74FF0000B274AD94611F8A2
:102A5000013B1AF80BC00BF1010B12F8010B03EA52
:102A60000C0305910492584009F05CFEBBF1070F7E
:102A70008144DDE904215FFA89F9E8D1B9F1030F56
:102A8000CAD8B8F1000F16D00023A4F83E57A4F816
:102A90003C57A4F83A57A4F83857A4F83677A4F866
:102AA0003477A4F83277A4F8307784F84037C4F844
:102AB0002C672023A2E794F8403704EB430201334C
:102AC000DBB2A2F83857A2F83077032BEDD984F89F
:102AD0004087ECE76E28760080C1FFFF199101085E
:102AE000EC900108F3900108FA90010801910108A7
:102AF00080F843177047A0F84417704730B4B0F817
:102B000026470A4604F13C0304F516749BB2A5B2AD
:102B10000024591C00EB4303B3F84A371C448BB222
:102B2000AB42F6D14FF40773B4FBF3F4C4F30723BD
:102B300082F8234082F8223024230178014830BCF7
:102B400007F0A0BFC0D90020B0F82A3770B5013314
:102B500004468EB09BB2B4F844579D42A0F82A3781
:102B600090F8460704D9003018BF01200EB070BDA0
:102B7000B4F82237B4F828579D42F4D3B3F5617FF7
:102B8000F1D204EB43050029A5F84A272983B4F8BC
:102B9000205704EB85056A684FEA4202B8BF42F04D
:102BA00001026A60002865D1A3F5C8735A2B03D8C7
:102BB00001212046FFF782FEB4F82837B4F8221727
:102BC00099427AD1B4F93237A1F28E21B4F9305753
:102BD0008422B4F9386789B21D44B4F934372046E9
:102BE0001D44B4F936371D44B4F93A371E44B4F9DC
:102BF0003C3745F38F051E44B4F93E371E4494F824
:102C0000413746F38F068DF814300823CDE901567D
:102C1000009305ABFFF704FE94F84137402B40F0DA
:102C2000C18004A800F02CF90DF113030DF112027C
:102C30000DF1150104A800F051F994F843279DF80F
:102C400012309A4239D100239DF8142084F842377B
:102C500084F847379DF813301A438DF814200A2B57
:102C600000F29580DFE803F0675276939393123A6F
:102C70003A933A00B4F82427511E89B28B429BD371
:102C8000013292B2934297D8002192E72378744997
:102C9000002B7448B4F9243714BF02220122CDE975
:102CA000005609F0B5FA05A92046FFF727FF0223D1
:102CB00084F84637002384F84837B4F8223794F86C
:102CC00046070133A4F82237B4F8203701339BB20A
:102CD000042B88BF0023A4F8203744E794F8463734
:102CE000022BEAD123786049002B5E48B4F92437DF
:102CF00014BF02220122CDE9005609F089FA05A984
:102D00002046FFF7FBFE9DF81330D4E723785749A0
:102D1000002BB4F9243714BF02220122CDE900565A
:102D2000504809F075FA05A92046FFF7E7FE012390
:102D300084F84637C1E794F84637012BF7D123785A
:102D40004B49002BB4F92437CDE9005614BF0222B9
:102D50000122E5E794F84637012BAED123784549A7
:102D6000002BB4F9243714BF02220122CDE900560A
:102D70003C4809F04DFA05A92046FFF7BFFE0023A5
:102D800084F8463742F20F73A4F8283795E7237882
:102D90003949002BB4F92437CDE9005614BF02227B
:102DA0000122E5E7202B17D123783449002B2D4849
:102DB000B4F9243714BF02220122CDE9005609F0EC
:102DC00027FA05A92046FFF799FE002384F8423729
:102DD0000123A4F8463770E794F8463793B194F886
:102DE00042370133DBB20C2B84F842370AD9217801
:102DF0001C4807F079FE002384F8463742F20F732F
:102E0000A4F8283794F84637012B17D194F84737A0
:102E100005AA2178042B13488BBF202301338DF89A
:102E20001430DBB28BBF002384F8473784F8473770
:102E30008DF81430222307F025FE3EE7022B7FF4A5
:102E40003CAF94F84837002B3FF437AF43F04003D2
:102E500005A920468DF81430FFF750FE2DE700BF7E
:102E600031910108C0D9002068910108A0910108A2
:102E7000D8910108139201084F9201087F9201082E
:102E800070470000B1F5006F10B50DD34FF48023EB
:102E900040F6754405480B4201D15B08FBE7DA0AAE
:102EA000624351400142F6D1084610BD00F8FFFFD1
:102EB00010B54C780B78E40004EBC3248B7804EB5A
:102EC00053142146FFF7DEFF034B53F82000604008
:102ED000C0F3C72010BD00BFB892010873B51E46ED
:102EE0004B7B0C7B15469A099B0042EA84020C7DC1
:102EF000C97C23F03F038DF80420890001F03C01D8
:102F0000194341EA9411A4008DF8051001A924F099
:102F10000F048DF80640FFF7CBFF030900F00F0008
:102F20002B70307002B070BD02F00F0242EA011146
:102F3000134AC8B2197B21F03F0130B541EA900134
:102F400032F810401973E5B2597BA40AAA0801F0BF
:102F50000F0104F03C0441EA801102F0300002F05D
:102F60000F0201435973D97C21F00F0111431A7DDF
:102F700002F00302D97442EA851222431A7530BD69
:102F8000B8B201082DE9F04100254FF4B9760446A6
:102F900005810680458145730573304614F048FF6E
:102FA00026826060304604F12C06258365776583B0
:102FB000257714F03DFF04F14C0233466061A562B1
:102FC000C4E9085523F8025B9A42FBD14FF0000395
:102FD00004F16E01002284F84C3004F14D0303F833
:102FE000012B9942FBD104F16F0884F86E2004F1A3
:102FF0007B070022434603F8012B9F42FBD104F1DB
:1030000087023B46002103F8011B9A42FBD104F1E1
:10301000AF03002102F8011B9342FBD104F1D70258
:10302000002503F8015B9A42FBD1C4E93655C4E997
:103030003855A4F8E85020220021304615F030F829
:1030400005230C220B4984F8203009233846638479
:10305000094BC4E9093614F089FF0C2205494046A2
:1030600014F084FFA4F8E8502046C4E93855BDE8C0
:10307000F08100BFC0B4010862050020092A2DE9D3
:10308000F04104460D4627D10C2200217B30134E1F
:1030900015F006F8124F002316F8011B03F007087D
:1030A00004EBD10001F0070117F801C0D91090F826
:1030B0007B20013315F801E017F808101EEA010F14
:1030C00014BF42EA0C0222EA0C02442B80F87B2057
:1030D000E2D10020BDE8F0810420FBE7CCB4010878
:1030E000B8B40108012A04D10978012903D00229C2
:1030F00008D004207047002380F8E810C0F8E030C2
:1031000018467047002380F8E920C0F8E430F7E75C
:10311000002380F84C10C0E93733C0F8E430A0F841
:10312000E8307047002914BF0523002380F84C3095
:10313000704700002DE9F04194B006461746002480
:1031400003AD4FF4E37240F252504FF6AE2C4FF6FF
:103150003A6E01F0C003802B2AD0C02B25D0002B63
:103160000CBF7346634625F8143001348900042CE3
:10317000C9B2EED10DF1140814220021404614F01A
:103180008FFF23460AAA294606F120008DF81E70FB
:1031900013F076FF14230AAA02210748CDF8008015
:1031A00004F0BEFA14B0BDE8F08125F81400DCE7A5
:1031B00025F81420D9E700BF708A00201B4B1B782C
:1031C000622B10B512D100F1870300F1A8025F2431
:1031D000002183F8284003F8011B9342F9D12123F1
:1031E000A0F8D8300023A0F8DA3010BD5F2BF9D159
:1031F00000F1870300F18E025524002183F8284056
:1032000003F8011B9342F9D15F2300F19602FF24DA
:10321000002180F8B63000F18F0383F8284003F8CE
:10322000011B9342F9D10F23DAE700BFA99A0020CE
:1032300037B500F14D040D4621220749204614F010
:1032400095FE01A8FFF71CFE23460922294601A886
:10325000FFF76AFE03B030BD10B5010800230381FB
:10326000437343810373704700230383437743838E
:1032700003777047D0F8DC00704708B5FFF71DF8FA
:103280002323B0FBF3F0C0B208BD08B51030FFF740
:1032900014F82323B0FBF3F0C0B208BD222AF8B51E
:1032A00004460D4633D1FFF708F8202831D994F8A9
:1032B000E83033B1002323816373638184F8E830FD
:1032C000237301231946227B02F0FF0052B1617380
:1032D0000133222BF7D1114B1878E0B9012384F880
:1032E0004C30F8BD66682289EF5C92B2B7542289EF
:1032F000013292B2228122892688964200D820810A
:103300002089628992B28242E2D12173E0E70420EF
:10331000E7E70520E5E70020E3E700BFAA9A0020E1
:10332000222AF8B504460D4634D11030FEF7C5FF09
:10333000202831D994F8E93033B10023238363770F
:10334000638384F8E930237701231946227F02F052
:10335000FF0052B161770133222BF7D1104B18785F
:10336000E0B9012384F84C30F8BD6669228BEF5C2C
:1033700092B2B754228B013292B22283228B268AD8
:10338000964200D82083208B628B92B28242E2D197
:103390002177E0E70420E7E70520E5E70020E3E701
:1033A000AA9A0020428903899BB2934205D1027BED
:1033B00002F0FF0382B100887047438902899A4274
:1033C00004D903894089181A80B270474289038959
:1033D00000881844801AF7E718467047F8B5D0F807
:1033E000DC3004460F461646013300F16F05C0F885
:1033F000DC30D0F8E0300133C0F8E030D0F8E43011
:103400000133C0F8E43090F86E300B2B13D9002351
:1034100080F86E302046FFF7C5FF00286BD104F11D
:103420001000FFF7BFFF002865D10C22364928465F
:1034300014F09CFD01E0002BECD094F86E100322F8
:1034400004F1AF00294414F091FD012E4FF000006B
:103450000CBF0823042384F8870084F88930D4F84B
:10346000DC3084F88800132B06D904EB0610FFF734
:1034700099FF003018BF01207B1E94F86E2059423E
:103480005941002A3BD0B2F1090C4FF0010518BF99
:103490004FF0010C94F8AF30012F80EA010681EA69
:1034A000050143EAC0100CBF08230023614514BF87
:1034B00020210021184394F8B03043EAC513AE42EE
:1034C00014BF02250025664514BF0226002684F895
:1034D000AF0043EACC032B4384F8B03094F8B1300A
:1034E0001943032331431A44C4F8D83084F8B11087
:1034F00084F86E20F8BD0C2204F17B0197E7154695
:103500004FF0010CC6E700BFC0B40108F8B500EBEE
:10351000011605460C463046FFF744FF202809D91E
:10352000D5F8DC30132B05D904F1380355F82330D6
:10353000052B10D82C44002205F14D0305F16E0136
:1035400084F8E82013F8010B8B4283F8610083F8BC
:103550003920F7D126E005EB041405F1870105F1C8
:10356000A80700202346B4F808C0628992B26245D9
:1035700001D1227B92B1D6F804C05A8992B21CF8CC
:10358000022081F8282018735A89013292B25A8198
:103590005A89B6F800C0944500D8588101F8010B4B
:1035A0008F42E0D12123C5F8D830F8BD38B590F866
:1035B0004C300446002B41D0B0F8D820F2B123485B
:1035C00003F0B8FC0546142D38D9B4F8DA3020469B
:1035D000143DE2180133ADB292F8AF1092F8872093
:1035E000A4F8DA30FFF7A6FDB4F8DA20B4F8D83042
:1035F0009A42E8D30023C4F8D8301FE0013B042BE3
:103600001DD8DFE803F0031C100A15000021FFF7A6
:103610007DFF042384F84C300CE000220121FFF7E9
:10362000DDFE0323F6E70121FFF770FF0223F1E738
:10363000FFF7C4FDB4F8D830002BC0D138BD01224B
:103640000021FFF7CBFE0123E4E700BF708A0020D2
:103650000022034630B503F8082B002400F13002A5
:103660000025E3E802459A42FBD100F5D053002142
:103670000C3322F8021B9342FBD100F5EE511A469F
:1036800000230C3122F8023B9142FBD141F6CC528F
:103690002F49835041F6D052815041F6D4522D49E2
:1036A000815041F6D85242F20F71815241F6DC52FC
:1036B0004FF00001835000F5EF52136041F6E452E1
:1036C000835241F6E652815441F6E852002183507C
:1036D00041F6EC52835041F6F052835041F6F452D9
:1036E000835041F6F852835000F5EF5200F5F55340
:1036F0001C32043342F8041B9342FBD11A4600F5F6
:10370000FA5300210C3342F8041B9342FBD11A46B2
:1037100000F5FF530021143342F8041B9342FBD100
:103720001A4600F5025300211C3342F8041B934251
:10373000FBD100F503510022063103F8012B994219
:10374000FBD142F2C803C25042F2CC03C25230BD98
:1037500000000F270F270F27002341F6DC521149E5
:103760000370835000F5EF52136041F6CC52835042
:1037700041F6D052815041F6D4520B49815041F666
:10378000D85242F20F71815241F6E452835241F60F
:10379000E652835442F2C802835042F2CC02835272
:1037A000704700BF00000F270F270F2742F2CC03FE
:1037B00010B50446C05AB0B142F2C8032B22E358F8
:1037C000B3FBF0F3C3F3072081F82A3081F8290016
:1037D000064807F0C3F8002342F2C802A35042F2A1
:1037E000CC02A35210BD2922F2E700BFC0D90020AD
:1037F00042F2CC0310B50446C05AA0B142F2C8034D
:103800000E22E358B3FBF0F3C3F307204B730873A6
:10381000064807F0CFF8002342F2C802A35042F254
:10382000CC02A35210BD0C22F2E700BFC0D9002089
:1038300041F6CC53002170B5C35A0446013350F809
:1038400033301F4823F07F43584008F08FFF022891
:1038500033D841F6D0531B4D18200021E25A02F212
:103860006D139BB2B3F5F07F24BFA2F173039BB23B
:1038700003F6045215F8016B04EB4202B2F904207E
:10388000CEB1891A5A1D013892B2B2F5F07F29BF24
:103890006FF4ED7213469B189BB210F0FF00E7D156
:1038A00041F6DC53E2588A4204DAE15041F6CE5345
:1038B000E052012070BD1144E4E70020FAE700BFA8
:1038C00050765500EDBC0108F8B541F6CC530578AB
:1038D00004460021C35A022D03F1010318BF00253D
:1038E00050F83330314823F07F43584008F03EFF12
:1038F000A84258D841F6D0532D4E18200025E25A40
:1039000002F26D139BB2B3F5F07F24BFA2F17303F3
:103910009BB203F6045116F8017B04EB4101B1F9A7
:103920000410002F3DD06D1A591D013889B2B1F530
:10393000F07F29BF6FF4ED770B46DB199BB210F0D7
:10394000FF00E6D104F5EF531968A94228DA1D609B
:1039500041F6E45341F6D251E05241F6D453E252DB
:10396000531D9BB2B3F5F07F24BF6FF4ED701318B5
:1039700001206352531C41F6D8519BB2B3F5F07F3E
:1039800024BF6FF4EF73D318635202F2DF1341F6D2
:10399000D6519BB2B3F5F07F28BF02F1FF336352DB
:1039A000F8BD0D44C0E70020FAE700BF68B4AA00E4
:1039B000D5BC010838B504460D46FFF739FFB0B154
:1039C00041F6E6530522E25441F6CE52A35A03F1E2
:1039D0001800013324F81050A352002342F2C80209
:1039E000A35042F2CC02A3520123237038BD2046DB
:1039F000FFF76AFF0028F9D00649074807F076FB71
:103A00000121064803F0B4FA0121044803F0BCFA8E
:103A10000223EAE76FBD0108C0D90020708A0020A8
:103A20002DE9F043079E0025BDF820C0DFF844E0F3
:103A3000DFF84480ACB29C421AD231F9129004F003
:103A40000704EF100532B9F1000F05F10105F05D33
:103A500092B2B5BF18F804401EF80440204320403D
:103A6000624528BFA2EB0C02F05528BF92B2E1E7F5
:103A7000BDE8F08342B701084AB7010841F6CC53CC
:103A80002DE9F041C35A0446002586B0013329468A
:103A900050F833304F48584008F068FE012818D8D5
:103AA0004D494E4807F022FB29464D4803F060FA85
:103AB00029464B4803F068FA484806F0C5FF41F62E
:103AC000DC53E55004F5EF531D60257006B0BDE8EA
:103AD000F08141F6D653E15A41F6D853E25A41F605
:103AE000D0539142E35A24D2994204D89A4202D345
:103AF0002046FFF7E9FE41F6E45834F80830952BEC
:103B00001AD93849354807F0F1FA0021344803F052
:103B10002FFA0021324803F037FA304806F076FFDA
:103B2000002341F6DC52A35004F5EF5213602370DA
:103B3000CCE79942DAD8DBE741F6D05341F6D857C3
:103B4000E25AE35B9A42C1D14FF4F07341F6D25688
:103B500002AD04F5D0510193204600956023A25B8D
:103B60000C31FFF75DFF34F808201521B2FBF1F3AB
:103B700001FB13239BB233BBA2B955231A49174843
:103B80008DF8113041F22D63ADF8123041F6D65365
:103B9000E35E0193E35F009341F6D453A25FE35EDB
:103BA00008F036FB29462046FFF722FE41F6E45294
:103BB000A35A0133A352002341F6DC52A35004F56B
:103BC000EF54236082E70C222946044806F0F2FEF7
:103BD000ECE700BF5E13AAAA05BD0108C0D900200A
:103BE000708A002025BD01084DBD010841F6E8534B
:103BF0002DE9F04FC45841F6EC5341F6FC5941F61B
:103C00004C7B50F803E004F007020B680EEB03084E
:103C100041F6F453C65847460B6906EB030CE3081C
:103C2000E04500EB8303A8BF6746E04553F8095021
:103C300041F6A468B5BFDFF8E8C0DFF8E8C01CF8BB
:103C400002C01CF802C0B4BF0CEA05054CEA050529
:103C500043F809504D68AE444D692E44F44653F87C
:103C60000850B645A8BFB446B645B5BF2C4E2D4E3C
:103C7000B65CB65CB4BF3540354343F8085041F6F6
:103C8000F0558E6950F805E08D680EEB050A41F697
:103C9000F8554559D04605EB060953F80B60CA455F
:103CA000A8BFC846CA45B5BFDFF87490DFF8749066
:103CB00019F8029019F80290B4BF09EA060649EA19
:103CC000060641F6F47943F80B60CE68C96976447C
:103CD0000D4453F80910B646AE42A8BFAE46AE42F8
:103CE00019DA0F4DAA5C0A4043F8092041F6EC535B
:103CF0000134C75041F6F05340F803C041F6F45385
:103D000040F8038041F6F85340F803E041F6E853E9
:103D1000C450BDE8F08F034DAA5C0A43E4E700BF3E
:103D200032B701083AB70108D1E9003270B583F023
:103D3000010588B0D11882F001062A44334400916D
:103D40007419029301940793CDE905126946CDE9F0
:103D50000324FFF74BFF08B070BD0000002240F2C3
:103D60004911F0B513462E4D42F29C042D4F032B02
:103D70001DD8DFE803F002203846CE1001F007031B
:103D800006F27E7615F803C000EB860673681CEA1F
:103D9000030318BF022300EBD20C02F007061CF845
:103DA00004E0BE5D06EA0E0601320CF8046011F173
:103DB000FF31DCD2F0BDCE1001F0070306F5F56649
:103DC00015F803C000EB860673681CEA030318BFEE
:103DD000022300EBD20C02F007061CF804E0AE5DF3
:103DE00046EA0E06E0E7CB1001F0070603F2D273B5
:103DF000AE5D00EB83035B681E420CBF012303230F
:103E0000C9E7CE1001F0070C06F2FC7615F80CC0DD
:103E100000EB860676681CEA060F08BF0123D8E788
:103E20003AB7010832B7010830B54FF0FF32481EEB
:103E300001F126040F4D10F8013F5340C2F3072251
:103E40008442DBB235F8133083EA02031A46F2D11A
:103E5000DB4391F827009BB2DAB2904207D191F888
:103E60002820B2EB132F0CBF0120002030BD002012
:103E7000FCE700BF32B501082DE9F0434B1E0546B3
:103E800099B016468D4801F1520413F8017F10F8DD
:103E9000012B9C4282EA07021A70F6D1002303AA82
:103EA0001846013302F8010B542BFAD1DFF814E263
:103EB0000022802774460EEB4200B2F5257F63DBBB
:103EC000002441F6EC524FF080084027AC5041F6F8
:103ED000F052AC5041F6F452AC5041F6F852AC50AE
:103EE00041F6E852AC5018AB284603EBE40313F854
:103EF000542C04F00703023428FA03F127FA03F3E1
:103F0000114214BF012100211342029101A914BFE3
:103F1000012300230193FFF707FFB4F5257FE2D1CA
:103F2000FFF71CFF731E06F12802002103F8011F92
:103F30009A42FBD140F2491242F29C04604F4FF08A
:103F4000010C104605EBE20102F00708831A11F894
:103F500004E017F808101EEA010F09D0D90803F091
:103F6000070316F801E00CFA03F343EA0E03735457
:103F700012F1FF32E6D231462846FFF755FF19B05D
:103F8000BDE8F0831A4698E7D31011F803C01CF07F
:103F9000010F0CD018AB90F800809844437818F8C3
:103FA000549C27FA03F343EA090308F8543C1CF035
:103FB000020F0CD018AB90F802809844C37818F820
:103FC000549C27FA03F343EA090308F8543C1CF015
:103FD000040F0CD018AB90F804809844437918F87B
:103FE000549C27FA03F343EA090308F8543C1CF0F5
:103FF000080F0CD018AB90F806809844C37918F8D5
:10400000549C27FA03F343EA090308F8543C131DB0
:104010000830B3F5257FB5DA1CF0100F0FD014F877
:1040200013000DF1600804EB430340445B7810F883
:10403000548C27FA03F343EA080300F8543C1CF0BD
:10404000200F10D0531D0DF1600814F8130004EB7D
:10405000430340445B7810F8548C27FA03F343EA97
:10406000080300F8543C1CF0400F10D0931D0DF1D4
:10407000600814F8130004EB430340445B7810F825
:10408000548C27FA03F343EA080300F8543C1CF06D
:10409000800F10D0D31D0DF1600C14F8130004EB49
:1040A000430360445B7810F854CC27FA03F343EAE7
:1040B0000C0300F8543C0832FDE600BF52B701087B
:1040C0003AB70108ADB7010870B541F6E655A2B0A0
:1040D00004460E46435D23B1FFF7AAFB635D013B37
:1040E000635541F6CE52A35A03F1180001339BB237
:1040F00024F81060A35240F6E942934219D140F6E9
:10410000E4430DAD052204F13001019320460095F2
:104110004FF42573FFF784FC02AA29462046FFF7D7
:10412000ABFE78BB41F6DC532070E05004F5EF5352
:10413000186041F6CE53E25A40F6EE439A421FD140
:1041400041F6E45300221649E25241F6D0534FF0B3
:10415000EE721448E25041F6D453134AE2504FF441
:10416000EC7341F6D852A3524FF4EB72CDE9003212
:1041700040F2D7134FF4EE7208F04AF8022323708E
:1041800022B070BD0121094802F0F2FE012107486A
:1041900002F0FAFE02A92046FFF708FBC9E700BFBC
:1041A00090BD0108C0D90020D701D601708A002037
:1041B0002DE9F04700F5EE5804460D4616461F4619
:1041C0004FF0000908F10C081FFA89F39F424AD901
:1041D00042F2C80236F8191041F6D05AA3580B44DF
:1041E000A35042F2CC02A35A0133A352B8F80020E4
:1041F00035F9191004EBC202D2E90230DB18404154
:104200000029B8BF43F00103C2E9023034F80A3094
:1042100003F6045304EB430399802378012B05D064
:10422000022B1CD02046FFF7C5FB02E02046FFF71B
:104230004BFF34F80A3009F1010901339BB2B3F5A1
:10424000F07F28BF002324F80A30B8F8003001338B
:104250009BB2042B88BF0023A8F80030B4E72046A7
:10426000FFF70CFCE5E7BDE8F087000070B50446F9
:1042700000254FF4B97004F11C062581208065816A
:104280006573257313F0D4FD04F144033246606076
:10429000A561C4E9045522F8025B9342FBD104F501
:1042A0002771002203F8012B9942FBD13C23C4F86B
:1042B0009C2200212822A4F8A032304613F0F0FE00
:1042C00005232046237403236382024BC4E9053689
:1042D00070BD00BFBC0500202DE9F04F501E99B005
:1042E00002F15209002403AD034603F8014F99453A
:1042F00005F8014BF9D14B1EDFF8BCA10093002358
:104300001D461C460099AC460027254611F8016F52
:10431000CDE900161E46012101FA07F40199214258
:1043200014BF0124002404EB0C0EAC44A4440EF092
:10433000010E1CF0010F0CD006F0070C18A91AF89A
:104340000C8001EBD60C1CF854BC48EA0B080CF8A6
:10435000548CBEF1000F0ED006F1010C18A901EB30
:10436000DC0E0CF0070C1EF8548C1AF80CC04CEA4A
:10437000080C0EF854CC01370236AC46082F40F03A
:1043800087801033B3F5287FBCD1DFF830C100231C
:10439000012564460CEB4301B3F5257F7CD218AEB2
:1043A00006EBD30616F8546C37060AD591F800E0F0
:1043B0004F7812F80E8005FA07F747EA080702F867
:1043C0000E7077060AD591F802E0CF7812F80E80C9
:1043D00005FA07F747EA080702F80E70B7060AD58C
:1043E00091F804E04F7912F80E8005FA07F747EAD2
:1043F000080702F80E70F7060AD591F806E0CF79A3
:1044000012F80E8005FA07F747EA080702F80E705F
:104410001F1D0831B7F5257F3CD231070BD514F8A5
:1044200017E004EB4707797812F80E7005FA01F1EE
:10443000394302F80E1071070CD5591D14F811708C
:1044400004EB4101497812F807E005FA01F141EA6D
:104450000E01D155B7070CD5991D14F8117004EB56
:104460004101497812F807E005FA01F141EA0E012D
:10447000D155F1070AD5D91D14F8116004EB41019B
:104480004978975D05FA01F139439155083381E781
:10449000254640E73B467FE7064A10F8011F12F821
:1044A000013B484583EA01030370F6D119B0BDE82A
:1044B000F08F00BFB9BD0108B1BD010814BE0108ED
:1044C00070B59AB00C460023012202A940F249358A
:1044D0004FF6B74632EA040C4FEA420208BF21F811
:1044E0001360D2B218BF21F813500133082BF1D159
:1044F00006AA103012F0C4FD002306AA0121009381
:104500002823024803F00CF91AB070BD708A00200D
:1045100001EB4101490001F59671B1F5167F8ABFA3
:104520004FF41673A0F8A012A0F8A032704703460B
:1045300000895A8992B2824203D11A7B02F0FF00AD
:1045400082B158685A8992B2825C0A70002119734C
:104550005A89013292B25A815A891888904200D8F9
:104560005981012070470000428903899BB2934220
:1045700070B50446A2B0B0F89C5220D1037B0BB1B9
:1045800003880BB9002D5BD0638962689BB2D35C52
:10459000002B4ED1002D56D15C4B1B78EBB9B4F8F3
:1045A000A002AA22A9B2B4F89C3288423DD9591C73
:1045B00023440135A4F89C1283F84420F2E7438990
:1045C00002899A4204D9038942899B1A9BB2D8E78F
:1045D0004289018803890B44F7E70DF10301204666
:1045E000FFF7A5FF01AB204659190135FFF79FFFE3
:1045F000292DF7D10DF13202204601A9FFF76CFEFB
:104600004AF2EA630CA80022ADF83030B4F89C32CC
:104610009918013210F8015B14FA81F1552A81F8DA
:104620004450F5D15533A4F89C320023A4F89E32AF
:1046300003E0012B06D0022B38D0B4F89C3213B91A
:1046400022B070BDE5B1324802F074FC0546282D59
:10465000F6D9B4F89E322046283D5A1C2344ADB208
:10466000A4F89E2293F84410FFF72AFFB4F89E2284
:10467000B4F89C329A42EAD30023C4F89C32DFE7B4
:104680000C250CA92046FFF752FFB4F89C12013DFF
:1046900020464B1C4431A4F89C322144FFF747FFCD
:1046A00015F0FF05F1D1A4F89E52C6E7002DCAD13E
:1046B0000CA92046FFF73BFFB4F89C325522C826D0
:1046C00003F112017A2589B2E01880F84420581CC1
:1046D00014FA80F080F84420981C14FA80F080F8D6
:1046E0004420D81C14FA80F080F84420181D14FAD5
:1046F00080F080F84460581D063314FA80F09BB2B5
:1047000080F844508B42DFD18DE700BFAA9A002089
:10471000708A002008B5FDF7D0FD0D23B0FBF3F043
:10472000C0B208BD037B10B503F0FF021BB101232B
:104730004373002010BD446803899BB2E154038990
:1047400001339BB2038103890188994200D8028119
:10475000028943899BB293424FF0010300D1037356
:104760001846E7E7292A70B506460C4619D1FDF729
:10477000A4FD292806D802B20B490C4806F098FF80
:10478000052070BD651E283400213046FFF7CAFFA2
:1047900015F8011F3046FFF7C5FFA542F8D10020EC
:1047A000EFE70420EDE700BF3CC30108C0D90020BB
:1047B0000C2A70B506460C4619D1FDF77EFD0C2873
:1047C00006D802B20B490C4806F072FF052070BDF6
:1047D000651E0B3401213046FFF7A4FF15F8011FB9
:1047E0003046FFF79FFFA542F8D10020EFE70420F5
:1047F000EDE700BF79C30108C0D9002010B5044619
:10480000FDF75BFD024628B90548064906F050FF52
:10481000052010BD02212046FFF784FF0020F8E7A5
:10482000C0D900205CC3010800224FF4804102601F
:1048300081808271826002737047C901D201018058
:104840004942828041807047B0F9003030B593B161
:10485000827932B98B420ADC0123837100238360A1
:1048600003738368B3F5166F07D9002119E0B0F917
:1048700002308B42F0DA084630BD047B0D49621CE1
:10488000B0F9045051F82410D2B269430B2A0273D4
:104890004FEAE13188BF002201F30F0109B288BF5E
:1048A0000273013342F6DF6293428360E3D900234F
:1048B0008371E0E798C3010838B500F678450446EF
:1048C000284602F0AAF8A0B1284602F0ABF880B161
:1048D0000849094806F00AFC0023284684F84C3CA5
:1048E00002F091F804F6584002F08DF8012384F8A4
:1048F000983C38BDD7C40108C0D90020034670B524
:10490000D0E90254D0E904021E686A4300FB012288
:10491000986906FB0022D8695E6800FB1422186AB9
:1049200006FB1020C01300F30E0000B2C3E90054D0
:10493000C3E9021070BD38B50025044600F5456096
:1049400000F8045C02F05FF804F6584002F05BF8EF
:1049500004F6684002F057F804F5476002F053F897
:1049600004F6784002F04FF804F5486002F04BF886
:1049700004F6884002F047F804F5496002F043F875
:1049800004F5406001F024FD04F5806001F030FF83
:1049900004F5006001F02CFF204601F029FF04F52A
:1049A000446002F017F8A4F8585D04F55660A4F8C6
:1049B0005A5D84F85D5D84F85C5D02F055F804F59D
:1049C000526001F0F1FD04F6284001F0C3FF84F8C5
:1049D000985CA4F8805D38BD2DE9F74F9DF8344010
:1049E00099469DF838300F46C4EB04149DF84010EA
:1049F00001939046A4009DF844209DF8483000F5AE
:104A0000466AA4B29DF8305080F84D1C064680F8E6
:104A10004E2C214680F84F3C002250469DF83CB079
:104A200001F0DFFF0022C5EB051106F545608900A6
:104A300089B201F0D6FF14B1504601F0DFFF019BAF
:104A40004246394630460C934B46CDF834B003B05D
:104A5000BDE8F04F01F0C0BD2DE9F047BDF824706E
:104A600004469DF820608846914600213A4600F6AB
:104A700078409A469DF8285001F0B3FF2EB13A468F
:104A8000314604F5476001F0ACFF53464A464146C3
:104A900004F58060CDE90855BDE8F04701F09CBD04
:104AA0002DE9F04F85B01D46044616469DF8383076
:104AB0009DF84CE000939DF83C309DF850C0019368
:104AC0009DF840309DF8540002939DF85C309DF8AD
:104AD000582003939DF864309DF844B0A4F81C3D21
:104AE00084F818ED84F819CD9DF848A084F81A0DC3
:104AF00004F6584084F81B2D00229DF860709DF844
:104B000068909DF86C8001F06CFF0022594604F615
:104B1000684001F066FF0022514604F5486001F04C
:104B200060FF314604F5446001F022FF32464946F9
:104B300004F60850FFF781FE3A46039904F6284030
:104B4000A4F83E8D01F083FE294604F54060DDE9BE
:104B5000002301F0B3FB40B9029A294604F54260F4
:104B600005B0BDE8F04F01F03DBC05B0BDE8F08FE9
:104B700070B41D469DF810400126A0F81E2DBDF80A
:104B80000C302A4680F83C6D00F50060CDE9034406
:104B900070BC01F021BD000070B504460D4600F563
:104BA000456001F033FF294604F6584004F6884674
:104BB00001F02CFF294604F5466001F027FF294645
:104BC00004F6684001F022FF294604F5476001F031
:104BD0001DFF294604F6784001F018FF294604F528
:104BE000486001F013FF2946304601F00FFF04F53D
:104BF0004960294601F00AFF304601F00EFF68B116
:104C0000304601F00FFF48B194F84C1C044806F000
:104C10007BF93046BDE8704001F0F0BE70BD00BFCA
:104C2000C0D9002038B504460D46D9B100F6584524
:104C3000284601F0F2FE40B3284601F0F3FE20B30F
:104C40001248134906F052FA0423284684F84C3CD3
:104C500001F0D9FE94F83C3DBBB10C48BDE83840AA
:104C600006F072B90B4802F083F92946094802F0B0
:104C70008BF90949054806F039FA032304F6784010
:104C800084F84C3C01F0BAFEE4E738BDC0D90020FE
:104C900023C40108708A002037C4010870B5044697
:104CA00000F678450E4699B10121144802F060F9EA
:104CB0000121124802F068F91148124906F016FA6B
:104CC0000223284684F84C3CBDE8704001F09BBEAE
:104CD000284601F0A2FE78B1284601F0A3FE58B1A3
:104CE0000949074806F002FA284684F84C6C01F09E
:104CF0008AFE04F65840E7E770BD00BF708A0020C6
:104D0000C0D90020C2C40108D7C4010838B5044680
:104D1000A9B100F65845284601F07FFEE0B12846CB
:104D200001F080FEC0B10D480D4906F0DFF90923FE
:104D3000284684F84C3CBDE8384001F064BE074882
:104D4000084906F0D3F9082304F6784084F84C3C6F
:104D5000BDE8384001F052BE38BD00BFC0D90020C8
:104D60006BC4010880C4010810B5044661B108484D
:104D7000084906F0BBF9072304F6784084F84C3C58
:104D8000BDE8104001F03FBEBDE81040FFF794BD04
:104D9000C0D90020EAC4010838B504460D4699B9C7
:104DA0000A4802F0E5F82946084802F0EDF80848FC
:104DB000084906F09BF9052304F6784084F84C3C3A
:104DC000BDE8384001F01ABE38BD00BF708A00202F
:104DD000C0D900200AC4010870B5044600F6784521
:104DE0000E4699B10121144802F0C2F8012112487F
:104DF00002F0CAF81148124906F078F9042328464F
:104E000084F84C3CBDE8704001F0FDBD284601F03F
:104E100004FE78B1284601F005FE58B1094907485B
:104E200006F064F9284684F84C6C01F0ECFD04F6B9
:104E30005840E7E770BD00BF708A0020C0D900204D
:104E400023C40108D7C4010810B5044661B9074856
:104E5000074906F04BF90A2304F6784084F84C3CE5
:104E6000BDE8104001F0CABD10BD00BFC0D9002090
:104E700051C4010810B5044661B10848084906F05C
:104E800035F9092304F6784084F84C3CBDE810401D
:104E900001F0B9BDBDE81040FFF70EBDC0D900203C
:104EA0006BC4010838B500F546650446284601F094
:104EB000B4FD78B1284601F0B5FDA0B10A490B4810
:104EC00006F014F9204601F0ACFC2846BDE8384055
:104ED00001F094BD0548044906F008F92046BDE8F4
:104EE000384001F09EBC38BDC8C30108C0D90020BD
:104EF00070B5044600F668450E46E9B1284601F053
:104F000091FD002843D02249224806F0EFF8022301
:104F1000284684F84C3C01F076FD94F84D3CB3B340
:104F200094F84F3C9BB32046FFF7BCFF04F5456067
:104F3000BDE8704001F062BD174802F019F8314633
:104F4000154802F021F81549124806F0CFF8284616
:104F500084F84C6C01F057FD04F6584001F053FD05
:104F600004F5476001F04FFD04F5456001F04BFD8D
:104F700004F6884001F047FD012384F8983C94F83A
:104F80003C3D23B10348BDE8704005F0DDBF70BD76
:104F9000C2C40108C0D90020708A0020D7C401080B
:104FA00038B504460D4699B300F65845284601F039
:104FB00034FDD8B1284601F035FDB8B11E491F486F
:104FC00006F094F8042304F5476084F84C3C01F0A3
:104FD0001AFD284601F017FD04F5446001F0F4FCC9
:104FE00094F83C3D13B1154805F0AEFF04F5456556
:104FF000284601F012FDF0B1284601F013FDD0B1B2
:105000002046FFF74FFF2846BDE8384001F0F6BCC8
:105010000B4801F0ADFF2946094801F0B5FF0949E9
:10502000064806F063F8032304F6784084F84C3C05
:1050300001F0E4FCD4E738BD23C40108C0D9002046
:10504000708A002037C4010870B5044600F6784520
:1050500029B301212B4801F08BFF0121294801F0E0
:1050600093FF2948294906F041F80223284684F88D
:105070004C3C01F0C8FC04F54565284601F0CDFC28
:1050800000283ED0284601F0CDFC002839D020462B
:10509000FFF708FF2846BDE8704001F0AFBC284686
:1050A00001F0BBFC0028E6D0284601F0BBFC00283C
:1050B000E1D0154804F54766154906F017F80B23AB
:1050C000304684F84C3C01F0A8FC18B1304601F0A1
:1050D000A9FC50B10F490C4806F008F804F58060AF
:1050E00001F09FFB304601F08EFC284601F08BFC5E
:1050F00004F6584001F087FC04F5486001F07EFC9E
:10510000B9E770BD708A0020C0D90020C2C4010870
:105110009BC40108A9C4010870B5044600F668459F
:105120000E46E1B1284601F07DFCA0B31A491B48A8
:1051300005F0DCFF0723284684F84C3C01F063FCB3
:1051400094F84D3C3BB394F84F3C23B32046FFF713
:10515000A9FE04F54560BDE8704001F04FBC104960
:105160000E4805F0C3FF284684F84C6C01F04BFC58
:1051700004F6584001F047FC04F5476001F043FC99
:1051800004F5456001F03FFC04F6884001F03BFC6B
:10519000012384F8983C70BDEAC40108C0D90020FE
:1051A000D7C4010838B5044669B300F65845284607
:1051B00001F033FCA8B1284601F034FC88B118494D
:1051C000184805F093FF092304F5476084F84C3C28
:1051D00001F019FC284601F016FC04F5446001F0CA
:1051E000F3FB04F54565284601F017FCB8B12846E5
:1051F00001F018FC98B12046FFF754FE2846BDE8A0
:10520000384001F0FBBB0849064805F06FFF082352
:1052100004F6784084F84C3C01F0F0FBE1E738BD3F
:105220006BC40108C0D9002080C4010870B50446D1
:1052300000F67845E9B12848284905F057FF0723CB
:10524000284684F84C3C01F0DEFB04F54565284611
:1052500001F0E3FB00283ED0284601F0E3FB0028E4
:1052600039D02046FFF71EFE2846BDE8704001F009
:10527000C5BB284601F0D1FB0028E6D0284601F046
:10528000D1FB0028E1D0144804F54766144905F025
:105290002DFF0B23304684F84C3C01F0BEFB18B1C7
:1052A000304601F0BFFB50B10E490B4805F01EFF20
:1052B00004F5006001F0B5FA304601F0A4FB284681
:1052C00001F0A1FB04F6584001F09DFB04F5486095
:1052D00001F094FBB9E770BDC0D90020EAC4010811
:1052E0009BC40108B5C4010838B504460D46B9B9D8
:1052F000154801F03DFE2946134801F045FE1349CB
:10530000134805F0F3FE052384F84C3C94F84E3C1A
:1053100013B12046FFF7C6FD04F6784001F06EFB9E
:1053200004F54565284601F078FB58B1284601F0A0
:1053300079FB38B12046FFF7B5FD2846BDE8384077
:1053400001F05CBB38BD00BF708A00200AC40108B0
:10535000C0D9002038B5044600F6784521B30121B4
:10536000284801F005FE0121264801F00DFE2648DF
:10537000264905F0BBFE0423284684F84C3C01F086
:1053800042FB04F54565284601F047FB002838D06C
:10539000284601F047FBA0B32046FFF783FD2846CF
:1053A000BDE8384001F02ABB284601F036FB002852
:1053B000E7D0284601F036FB0028E2D01449124815
:1053C00005F094FE0B2304F5446084F84C3C01F096
:1053D00001FB10490C4805F089FE04F5806001F0DE
:1053E00020FA284601F00FFB04F5476001F00BFBA3
:1053F00004F6584001F007FB04F5486001F0FEFA9E
:10540000BFE738BD708A0020C0D9002023C401083E
:105410009BC40108A9C4010838B5044651B90F4816
:105420000F4905F063FE0A2304F6784084F84C3CEB
:1054300001F0E4FA04F54565284601F0EEFA58B1AA
:10544000284601F0EFFA38B12046FFF72BFD284639
:10545000BDE8384001F0D2BA38BD00BFC0D9002045
:1054600051C4010838B5044600F67845E1B1254835
:10547000254905F03BFE0923284684F84C3C01F001
:10548000C2FA04F54565284601F0C7FA002838D06D
:10549000284601F0C7FAA0B32046FFF703FD2846CF
:1054A000BDE8384001F0AABA284601F0B6FA002853
:1054B000E7D0284601F0B6FA0028E2D01349114897
:1054C00005F014FE0B2304F5446084F84C3C01F015
:1054D00081FA0F490B4805F009FE04F5006001F060
:1054E000A0F9284601F08FFA04F5476001F08BFA25
:1054F00004F6584001F087FA04F5486001F07EFA9E
:10550000BFE738BDC0D900206BC401089BC40108A7
:10551000B5C4010810B5044600F6584001F06EFA13
:1055200004F54760BDE8104001F068BAF8B50446DC
:10553000174600F5456571B301212E4801F018FDAD
:1055400001212C4801F020FD2B492C4805F0CEFD0F
:10555000022384F84C3C2A49284805F0C7FD04F58D
:10556000806001F045F904F5006001F041F9204642
:10557000FFF7D0FF284601F050FA002838D028461F
:1055800001F050FAA0B32046FFF78CFC2846BDE896
:10559000F84001F033BA2AB11A49184805F0A6FDBF
:1055A0000723D6E700F54866304601F036FA0028B2
:1055B000E0D0304601F036FA0028DBD012490F481F
:1055C00005F094FD304684F84C7C01F01CFA04F69A
:1055D000884001F018FA94F84E3C13B12046FFF7CA
:1055E00061FC284601F00FFA012384F8983CC1E7DA
:1055F000F8BD00BF708A0020C2C40108C0D90020D5
:10560000D6C30108EAC40108D7C4010808B500F5EB
:10561000566001F0C9FAF023B0FBF3F0C0B208BD48
:1056200008B500F5566001F028FA002008BD037B9C
:1056300010B503F0FF021BB101234373002010BD1E
:10564000446803899BB224F81310038901339BB289
:10565000038103890188994200D802810289438924
:105660009BB293424FF0010300D103731846E6E763
:1056700070B51825002400F554664D43AC4205D0A2
:1056800000213046FFF7D3FF0134F7E770BD00007B
:105690002DE9F041044600F08AFF0025012604F5BB
:1056A000806004F6884800F082FF04F5006000F096
:1056B0007EFF04F5406000F0F3FD04F5426000F069
:1056C0008DFE04F6284001F0BAF804F5446001F0BC
:1056D00047F9C4F84C5C04F5456004F5496701F0EE
:1056E0007CF904F6584001F078F904F5466001F0C1
:1056F00074F904F6684001F070F904F5476001F0B0
:105700006CF904F6784001F068F904F5486001F09E
:1057100064F9404601F061F9384601F05EF94FF452
:1057200035734FF4B56284F8985CC4F8AC3C04F669
:105730000850C4F8B43C464BC4F8B02CC4F8B83C8C
:1057400045F26833434AC4F8BC3C4FF40043C4F804
:10575000D82C414AC4F8D03CC4F8DC2C44F66C2266
:10576000C4F8F43CC4F8FC3C3C4BC4F8E02CC4F84E
:10577000003D47F6E4233A4AC4F8043DC4F8F82C47
:10578000C4F8A45CC4F89C5CC4F8A85CC4F8A05C31
:10579000C4F8D45CC4F8C85CC4F8C05CC4F8CC5C81
:1057A000C4F8C45CC4F8EC5CC4F8E45CC4F8F05C15
:1057B000C4F8E85CFFF738F84FF001134FF4C871F4
:1057C000C4F8186DC4F81C3D04F5526000F060FE8A
:1057D00040F66113A4F8485D41F2C220A4F8403DB0
:1057E000A4F84A5D84F83C5DA4F83E6D84F84C5DF5
:1057F00084F84D5D12F01CFB4FF41663A4F8585D5D
:10580000A4F8503DC4F8440D4FF49650A4F85A5DE6
:1058100084F85D5D84F85C5D12F00AFBC4F8540DF9
:1058200004F5566001F009F92A4631464046A4F8CD
:10583000805D01F0D6F896222946384601F0D1F86D
:1058400020466421FFF714FF2046BDE8F08100BF29
:10585000F96BFFFF0080FFFF5D3BFFFFB505FFFF1A
:105860000000FFFF70B51825002400F555664D4374
:10587000AC4205D000213046FFF7D9FE0134F7E7EE
:1058800070BD000038B5044600294BD000F66845CD
:10589000284601F0AEF8C0B14049414805F026FC69
:1058A0000123284684F84C3C01F0A8F894F84D3CBC
:1058B0002BB194F84F3C13B92046FFF7F3FA94F854
:1058C0004C3C013B012B0BD938BD3649344805F01F
:1058D0000DFC022384F84C3C94F84D3C002BEBD19A
:1058E00032212046FFF7BEFF2046FFF713FE04F5E6
:1058F000456001F083F804F5496001F084F8012166
:10590000294801F035FB0121274801F03DFB04F651
:10591000884001F073F894F84C1C2148BDE83840E9
:1059200005F0F2BA002ACFD000F66845284601F00B
:1059300060F8C0B11D491A4805F0D8FB0623284677
:1059400084F84C3C01F05AF894F84D3C2BB194F893
:105950004F3C13B92046FFF7A5FA94F84C3C063BA0
:10596000012BB1D80AE012490D4805F0BFFB07230F
:1059700084F84C3C94F84D3C002BEBD1322120466E
:10598000FFF770FF2046FFF7C5FD04F5456001F005
:1059900035F804F5496001F036F8B8E7DFC30108CF
:1059A000C0D90020C2C40108708A0020F4C30108D5
:1059B000EAC4010838B590F84C3C04460B2B0AD8D1
:1059C000DFE803F00635393D4145494E53585D62E5
:1059D0002046FFF757FF94F84C3C3BBB04F5806032
:1059E00000F00FFF10BB04F5006000F00AFFE8B9FB
:1059F000204600F006FFC8B904F54965284601F0C5
:105A00000CF828B994F8983C13B1284600F0F6FF3A
:105A1000284601F002F848B1284601F003F828B101
:105A2000284600F0F0FF002384F8983C38BD20465B
:105A3000FFF75EFACFE72046FFF7B2FACBE7204642
:105A4000FFF702FBC7E72046FFF74EFCC3E72046FF
:105A5000FFF780FCBFE711462046FFF75DFBBAE782
:105A600011462046FFF79EFBB5E711462046FFF79B
:105A7000DDFBB0E711462046FFF7CEFCABE7114651
:105A80002046FFF7EFFCA6E72046FFF74FFDA2E711
:105A900010B5044609B31849184805F027FB02233E
:105AA0000121174884F84C3C01F062FA01211448A6
:105AB00001F06AFA04F6584000F0A0FF04F54960CE
:105AC00000F0A1FF04F6884000F098FF94F84C1C09
:105AD0000A48BDE8104005F017BA5AB1094907480D
