:020000040800F2
:100000000000022055F4000851F4000851F40008E3
:1000100051F4000851F4000851F4000800000000F9
:1000200000000000000000000000000051F4000883
:1000300051F400080000000051F4000851F40008D9
:1000400051F4000851F4000851F4000851F400087C
:1000500051F4000851F4000851F4000851F400086C
:1000600051F4000851F4000851F4000851F400085C
:1000700051F4000851F4000851F4000851F400084C
:1000800051F4000851F4000851F4000851F400083C
:1000900051F4000851F4000851F4000851F400082C
:1000A00051F4000851F4000851F4000851F400081C
:1000B000FD79000851F4000851F4000851F40008DB
:1000C00051F4000851F4000851F4000851F40008FC
:1000D00051F40008FDC20008A9C3000851F400084B
:1000E00051F4000851F4000851F4000851F40008DC
:1000F00051F4000851F4000851F4000851F40008CC
:1001000051F4000851F4000851F4000851F40008BB
:1001100051F4000851F4000851F4000851F40008AB
:1001200051F4000851F4000851F4000851F400089B
:1001300051F4000851F4000851F4000851F400088B
:1001400051F4000851F4000851F4000851F400087B
:1001500051F4000851F4000851F4000851F400086B
:1001600051F4000851F4000851F4000851F400085B
:1001700051F4000851F4000851F4000851F400084B
:1001800051F4000851F400080348044B834202D0A4
:10019000034B03B1184770479C0900209C090020BD
:1001A0000000000005480649091A891001EBD171C9
:1001B000491002D0034B03B1184770479C09002037
:1001C0009C0900200000000010B5064C237843B9BC
:1001D000FFF7DAFF044B13B10448AFF300800123AB
:1001E000237010BDA0090020000000001CAA040814
:1001F00008B5044B1BB104490448AFF30080BDE8C7
:100200000840CFE700000000A40900201CAA040851
:10021000A3F5803A704700BF154B002B08BF114B68
:100220009D46FFF7F5FF00218B460F461148124A05
:10023000121A10F081F90C4B002B00D098470B4B91
:10024000002B00D098470020002104000D000B482F
:1002500010F070F810F0A2F82000290008F072FBEE
:1002600010F06EF800000800000000000000000020
:1002700000000000A00900206C140120690301089F
:10028000F8B504460D4600F038FA294604F5987092
:1002900000F00AFC0023C4E9643304F5CC77A4F829
:1002A0008C3104F509713A4622F8023B8A42FBD1AF
:1002B0004FF0000204F50E76C4F82432A4F8283278
:1002C00084F82A22A4F82C32C4E98C3304F5227273
:1002D0003346002543F8045B9A42FBD14FF4807308
:1002E000A4F88832002384F89432A4F8AC3284F85D
:1002F000AE32C4F8B03284F8B432C4F88C52C4F8C8
:100300009052C4F89852C4F89C52C4F8A052C4F851
:10031000A452C4F8A8520B200FF0D6FF3023A4F843
:100320008C310D4BC4F894310723A4F82C320B4BBD
:10033000C4F82402C4F89071C4F83062C4F83432AE
:10034000C4F89852C4F89C52C4F8A052C4F8A452FD
:10035000C4F8A8522046F8BD040000206400002024
:1003600030B5B0F82822D0F824420346551CA05CD2
:10037000A3F82852A154B3F828220A2A84BF0022E5
:10038000A3F8282230BD90F82A3280F82A125B1A8E
:1003900058425841704738B5B0F8AC22052A044697
:1003A0000D4603D149B3012380F8AE32002DB4F8D5
:1003B000B03216BF80210021551C41EA5301B4F828
:1003C000B232A4F8B01218BFADB20133A4F8AC52E7
:1003D00094F8AE529BB2A4F8B2324DB37E2912D03B
:1003E000FE294FF000050CD1A4F82C5184F8B4522A
:1003F00084F8AE52A4F8B25203E084F8AE12A4F826
:10040000AC12284638BDB4F82C31102B04D9204644
:1004100000F08EF9054610B90025A4F82C510123EF
:1004200084F8B432002384F8AE32A4F8B232E8E79C
:1004300094F8B422012A04D0022AE2D1082BE0D198
:1004400004E0082BDDD1022384F8B432204600F00A
:1004500061F9CFE700F5987000F018BBD0EDA47AF1
:100460009FED0A7AF4EEC77AF1EE10FA05D801236F
:1004700080F8943290F894027047B0EE087AF4EE67
:10048000C77AF1EE10FAF5DB0023F1E79999193FED
:10049000D0F8A432C0F8A832D0F8A032C0F8A43204
:1004A000D0F89C32C0F8A0321249D0F89832C0F887
:1004B0009C3280EDA60A00F5277300F52B72B3EC91
:1004C000017AF1EC016AD0EDA67AE6EEC77A9342A2
:1004D000C0EDA67AF3D1084B9FED080A00F526700F
:1004E000F0EC017AB3EC017A9042A7EE270AF7D13B
:1004F000704700BF5C0B01086C0B01080000000096
:1005000010B52DED028B90F8882290F88932D0ED4D
:10051000A37A8A4282B00446B2EE047A01D1102B4B
:1005200046D9F4EEC77AF1EE10FAC4BFB3EE047AFE
:1005300077EEC77A9FED2C8AC8BFC4EDA37A07EE89
:10054000903AD4EDA36A84F88812F8EE677A102BFB
:1005500086EEA77A4FF0010301AA694604F50B70F5
:10056000B1EE040A88BFB0EE408A8DED007A0FF03C
:100570002DFB9DED000AB5EEC00AF1EE10FA4CBF5E
:1005800038EE400A30EE080A2046FFF781FFD4ED2E
:10059000A37ADDED016A84EDA40AB6EE007AE6EEF8
:1005A000C77A012384F88932C4EDA37A00200EE0D3
:1005B000F4EEC77AF1EE10FAF8DDB3EE047A77EED6
:1005C000C77A0133C0EDA37A80F889320120D4EDD7
:1005D000A37AB7EE007A77EE877AC4EDA37A02B0F9
:1005E000BDEC028B10BD00BF000000002DE9F04FF4
:1005F00085B00DF10409054617461E464A460223FA
:1006000000F5987000F040FA4FF0000A0DF108086C
:10061000574511D039F81A40E443C4F3C034214699
:100620002846FFF79DFE6040C0B24000013828F820
:100630001A000AF1010AEBE70DF10C0A4146022308
:10064000524605F5C6700FF065F94FF00008C14637
:10065000C346B8452FD03AF81840E443C4F3C03439
:1006600021462846FFF74CFF60B195F82A1285F81D
:100670002A420B1B594259412846B9F1000F04D0B8
:10068000FFF789FE08F10108E3E7FFF784FE8146E2
:100690000028F7D04FF49672294630460FF0B2FE8C
:1006A000B5F82C31A6F82C31B5F82E31A6F82E313C
:1006B000A5F82CB1E6E7484605B0BDE8F08F30B5A7
:1006C0000023044600F5967504F8013BAC42FBD1CB
:1006D000A0F82C31A0F82E3100239CB2A2420BD9F5
:1006E000B3F5957F08D0B0F82C41651CA0F82C51CB
:1006F000CD5C05550133F0E730BD024600F596713B
:10070000002302F8013B9142FBD1A0F82C31A0F864
:100710002E317047B0F82C31B3F5967F1FBF5A1CAD
:10072000A0F82C21C154012008BF00207047000010
:1007300070B5B0F82C11124E4FF0FF338C1E002212
:10074000551C92B2944209D9825C5A40D2B2C3F38A
:10075000072336F8122053402A46F1E7DB439BB2C9
:10076000045DDAB2944209D1014411F8012CB2EBD4
:10077000132F03D1A0F82E31012070BD0020FCE71B
:10078000800B0108B0F82C2170B50F4D4FF0FF33EE
:1007900004461618B44209D014F8011B5940C9B2D6
:1007A000C3F3072335F811104B40F3E7DB439BB24B
:1007B000A0F82E31911C8354013292B2C3F3072367
:1007C000A0F82C11835470BD800B010870B5002572
:1007D00000F10C0604460580C0E9015500F5A6733A
:1007E000304620F8025B9842FBD10321FFF748FD19
:1007F000062104F20440FFF743FD092104F2BC6026
:10080000FFF73EFD822323800B4BA3601E23C4F819
:100810007C390A4BC4F884394BF24033A4F8883948
:100820000F23A4F874596660C4F87859C4F8805945
:1008300084F88A39204670BD8000002080000001C5
:1008400090F8860970472DE9F041CEB20F46F11EAF
:10085000054649B200F5A67014469846FFF7FAFD22
:10086000394605F20440FFF7F5FDC4EB0414F11C12
:1008700049B205F2BC602401FFF7ECFDC5F87C49E4
:1008800085F88489BDE8F08190F88A1990F8883954
:1008900090F887294B40534090F8892980F888398F
:1008A0001A44D2B280F8892901EB5202534080F8F1
:1008B0008A39704790F8873990F88A1990F8882912
:1008C00001334A40DBB280F88739534090F88929D8
:1008D00080F888391A44D2B280F8892901EB520293
:1008E0005340DBB280F88A39184670472DE9F04151
:1008F0000446CEB09046022301AA0FF00BF8D4F8BC
:1009000078390133C4F8783902A804F5A677FFF7DF
:10091000F4FE02AB424601A93846FFF767FED0B1AC
:10092000BDF83631B4F874299A4203D1D4F8782945
:10093000022A0CD9BDF83421A4F87439023A0023F4
:10094000C4F8783992B202A94A480AF001FB4A4930
:1009500048480AF0B1FB04F2044602AB424601A942
:100960003046FFF743FED0B1BDF83631B4F87429F4
:100970009A4203D1D4F87829022A0CD9BDF834213F
:10098000A4F87439023A0023C4F8783992B202A963
:1009900038480AF0DDFA394936480AF08DFB04F28E
:1009A000BC6502AB424601A92846FFF71FFED0B145
:1009B000BDF83631B4F874299A4203D1D4F87829B5
:1009C000022A0CD9BDF83421A4F87439023A002364
:1009D000C4F8783992B202A926480AF0B9FA28492F
:1009E00024480AF069FBD4F88039D4F87C29023312
:1009F0009342C4F8803922D30023C4F880393846A2
:100A0000FFF72CFD07463046FFF728FD064628462F
:100A1000FFF724FD94F8853905460FB906B988B16A
:100A200053B90121174806F085FA0121154806F04F
:100A30008DFA012384F88539002384F886394EB075
:100A4000BDE8F0814BB101460E4806F073FA294625
:100A50000C4806F07BFA84F88559204694F88459AE
:100A6000FFF728FF854234BF0020012084F8860963
:100A7000E5E700BFE0D90020800D0108930D0108D3
:100A8000A60D0108908A00200EF044BF03460922FB
:100A900023F80C2B06314360C9B2024B53F82130C6
:100AA0008360704784010020002310B500F10C0220
:100AB00004460380C0E901335C3022F8023B9042D7
:100AC000FBD12046FFF7E2FF10BD024600F516718C
:100AD000002302F8013B9142FBD14FF4B472A0F81D
:100AE0005832A0F85A32A0F85C22A0F85E3280F8A2
:100AF00060327047F0B58DB002AEB0F85E32114F83
:100B00001424324637F91350D1B1AD1006339BB2DD
:100B1000772B88BF783B04F1FF344FEA650588BF27
:100B20009BB214F0FF0426F8025BEBD1A0F85E3212
:100B30000B2100941423044806F0D4FD0DB0F0BD41
:100B40000B33E4E7CA0D0108908A002070B5B0F8B5
:100B500058320446002B31D0194B1B782BB319485F
:100B6000194E06F0C9F90546142D27D9B4F85A32A2
:100B7000D91003F00702615CB25C01331142A4F8A2
:100B80005A3214BF012100212046FFF7B3FFB4F809
:100B90005A22B4F85832143D9A42ADB2E4D300233D
:100BA000A4F85A32A4F8583208E0B0F85A32002BB0
:100BB000D5D10648FFF744FE0028D0D170BD00BF54
:100BC00031070020908A0020B90D0108880A002012
:100BD00001EB41018900A0F85C127047B0F858029F
:100BE00000280CBFFF200020704729B990F8603220
:100BF00083F0010380F8603290F8600270470000D3
:100C00002DE9F043CDB004466846FFF758FD68462D
:100C1000FFF7B8FD634DB4F85CC20023A4F8583266
:100C2000A4F85A3284F86032A4F85E329AB294453D
:100C300017D994F86002B4F8582280F0010002F04D
:100C40000701D61084F860026F5CA15D30B13943B2
:100C50000132A1550133A4F85822E7E721EA070140
:100C6000F6E7504F08223E4616F8013B13F07E0F80
:100C700014BF012100212046FFF7B7FFB4F8583216
:100C8000002853D0D91003F00700615C285C0143B1
:100C9000D810013A013392B22154A4F85832002AF4
:100CA000E2D1DFF804819146BDF82C0193B2B3EB99
:100CB000C00F19464DD2C2F3CC0103F007031DF853
:100CC000016018F803301E4014BF012100212046A6
:100CD000FFF78BFFB4F8583280B3D91003F0070048
:100CE000615C285C0143D8102154591C89B2A4F8D6
:100CF0005812C6B109F10106F6B2052E13D194F8C7
:100D00006002CE1080F0010001F0070184F860025B
:100D100015F801C0A15DC8B14CEA01010233A1552B
:100D2000A4F8583200260132B146BDE703F00701AE
:100D3000685CD910615C21EA0001A9E703F00701B2
:100D4000685CD910615C21EA0001CCE721EA0C0162
:100D5000E4E7082217F8013B13F07E0F14BF0121CE
:100D600000212046FFF741FFB4F8583290B1D91066
:100D700003F00700615C285C0143D810013A01339D
:100D800092B22154A4F85832002AE3D110464DB053
:100D9000BDE8F08303F00701685CD910615C21EACB
:100DA0000001EAE7B90D0108C10D0108002310B5E3
:100DB000044603804360083004F12A01024602F829
:100DC000013B9142FBD184F82A30222202490FF0E4
:100DD00019FB204610BD00BF7D0F010830B50F4D37
:100DE000847DC1EBC1016B18695C5A78C2759A7831
:100DF0000276DA7842761A7982765A79C2769B79C7
:100E0000027F24F00F0402F00F0201F00F0123F023
:100E10000F030C431A438475027730BDC30E0108DB
:100E200030B50F4D847DC1EBC1016B18695C5A78F8
:100E3000C2759A780276DA7842761A7982765A7989
:100E4000C2769B79027F24F00F0402F00F0201F0BA
:100E50000F0123F00F030C431A438475027730BD52
:100E6000ED0E010810B504462E4802F075FB2D4822
:100E700002F0E5F9002835D06378013B032B4FD809
:100E8000DFE803F00217313C0121264802F0AAF9FD
:100E900009222549234802F0CBF822222349214880
:100EA00002F018FA01211F4802F00CF902236370C6
:100EB00018E094F82A102046FFF790FF222204F150
:100EC0000801184802F006FA94F82A30052B06D1DA
:100ED000002384F82A30237823B90323E7E701337A
:100EE00084F82A3010BD222211490E4802F0F2F98E
:100EF0000C4802F099F904236060D8E7094802F031
:100F000093F963681E339842ECD90021054802F03A
:100F1000D9F8044802F082F9002384F82A30C6E7A1
:100F20000023C4E7A4580020BA0E0108170F0108D7
:100F3000390F010810B504461D4801F001F91C489D
:100F400001F0AEF968B16378022B0BD0032B24D0EB
:100F5000012B29D122221749154801F0A9F90223B2
:100F6000637010BD94F82A102046FFF759FF222223
:100F700004F108010E4801F09BF994F82A30052B82
:100F800007D1002384F82A302378002BE9D10323EA
:100F9000E6E7013384F82A30E3E7222206490448D1
:100FA00001F086F90023DBE700236370F2E700BF5E
:100FB000B83100205B0F01089F0F010808B5124BE4
:100FC0001B785C3B062B1DD8DFE803F0181C1404CB
:100FD0001C1C0400017841B10C48012102F07CF88E
:100FE0000A48BDE8084002F0B7BA0848BDE8084022
:100FF00002F072B8BDE80840FFF734BFBDE8084012
:10100000FFF798BF08BD00BFC99A0020A458002070
:10101000012A11D1097801290CBF01230023037093
:101020000CD1437853B9064A127802F0FD025C2ACB
:1010300000D14170184670470423FBE70023F9E70D
:10104000C99A0020002303600371836000F10C0241
:1010500000F13C0122F8023B9142FBD14FF000032A
:1010600080F83C307047000037B5836890F83C202A
:1010700000294FEA4303B8BF43F001038360531CC8
:10108000DBB2172B00EB420280F83C3088BF002314
:101090009181044688BF80F83C30806820F07F430F
:1010A0002D4858400BF020FB022825D82B4A04F18C
:1010B0000C0104F13C054FF47A5331F9020B8242E2
:1010C000B8BF02468342A8BF03468D42F5D1D11A6C
:1010D000052911DD00218DF800108DF80220111274
:1010E0001A128DF801108DF80320694605221C485C
:1010F0008DF8043009F090FFA06820F07F43194874
:1011000058400BF0F1FA022824D8144A04F10C01DB
:101110004FF47A533C3431F9020B8242B8BF024695
:101120008342A8BF03468C42F5D1D11A052911DDAF
:1011300080218DF800108DF8022011121A128DF8FE
:1011400001108DF803206946052205488DF804300A
:1011500009F062FF03B030BD68B4AA0080C1FFFF90
:10116000E0D90020974B55002DE9F04104460E468A
:101170000025174643F23338ABB29F4221D936F9E6
:1011800015102379CA0F934209D02368B3F5004F95
:101190002ABF6FF4CC7003F299131B1823602368E5
:1011A000227103EB0802B2F5803F02D222600135C2
:1011B000E2E7A3F54C43CD3B23602046FFF754FF05
:1011C000F5E7BDE8F0810022027042807047000020
:1011D00030B5044685B07E4803F0A6F9237873B392
:1011E0007B4803F077FA042829D901AA79480C230F
:1011F0001146013B10F8015B02F8015B13F0FF039D
:10120000F7D162881520B2FBF0F300FB13239BB2E9
:1012100043B1012A15D130238DF80D304DF602630C
:10122000ADF80E300C226A4803F0A2FA638840F24F
:1012300076210133B3FBF1F201FB1233638005B079
:1012400030BD022A05D134238DF80D304DF61963D7
:10125000E6E7032A05D131238DF80D304DF66F6393
:10126000DEE7042A05D11F238DF80D304FF22B63E2
:10127000D6E7052A05D132238DF80D304BF2223303
:10128000CEE7062A05D124238DF80D304EF22A032D
:10129000C6E7072A05D133238DF80D304BF23B33D7
:1012A000BEE7082A01D1502354E0012B05D12523A4
:1012B0008DF80D3049F24F33B2E7022B05D1702380
:1012C0008DF80D304DF60B23AAE7032B05D125230E
:1012D0008DF80D304DF21D63A2E7042B05D13323A9
:1012E0008DF80D304BF21B339AE7052B05D12523E2
:1012F0008DF80D304DF26F7392E7062B01D1392333
:10130000E6E7072B05D125238DF80D304CF20C7341
:1013100086E7082B05D150238DF80D304DF26F0371
:101320007EE7092A4DD0092B05D125238DF80D30F4
:101330004DF21E0374E70A2A43D00A2B05D121235C
:101340008DF80D304CF20C236AE70B2A39D00B2BA9
:1013500005D125238DF80D304BF26F3360E70C2A51
:101360002FD00C2B05D13D238DF80D304DF202739B
:1013700056E70D2A25D00D2B01D1252364E70E2A2F
:101380001FD00E2B8FD00F2A1BD00F2B05D125235A
:101390008DF80D304DF21B6342E7102A11D0102B4F
:1013A00005D123238DF80D3043F61B2338E7112A8E
:1013B00007D0112B05D121238DF80D304FF2255385
:1013C0002EE716238DF80D304FF2295328E700BF82
:1013D000607A0020C10F0108012A38B5044616D1F1
:1013E0000B78012B0CBF01250025037809D12BB9FF
:1013F000438029220749084803F094F9257000200A
:1014000038BD002BFAD0044803F0D8F9F6E70420E1
:10141000F6E700BFCD0F0108607A002000224FF4EC
:10142000C061C0E900228160027370472DE9F34179
:10143000444E027B33789A42044668D0663B40F6BD
:10144000BF12052B55D8DFE803F003070A0D101370
:101450004FF46F7323800CE040F20F43FAE740F241
:10146000DF43F7E740F26163F4E740F61F03F1E77B
:101470000280238893423ED040F61F0293423CD024
:1014800040F2616293423AD040F2DF42934238D058
:1014900040F20F42934236D0B3F56F7F4ED1052311
:1014A000294F17EBC30749D060687B88638008B178
:1014B0000EF034FF608840000EF006FF00256060EB
:1014C000A8466288ABB29A421FD940460EF0E0FEB1
:1014D000B4F90830626883FB0001C30F43EA41039B
:1014E000A9B203F30F0322F811307B680135984449
:1014F000E7E70023AEE70023D2E70123D0E702238A
:10150000CEE70323CCE70423CAE733782373A37A17
:10151000A3B10E480D4F05F0EFFC4FF00008054653
:101520006388AB420AD2CDF80080626831783846D1
:1015300006F0D8F86388ED1AADB2F1E702B0BDE865
:10154000F08100BFC99A0020F80F0108908A00209E
:10155000012A06D10B785A1E534253418372002050
:1015600070470420704700220270704710B504468F
:10157000084807F017F823785BB1064807F0C5F86C
:10158000012806D9312204490248BDE8104007F07D
:10159000C4B810BDCC95002028100108012A06D13E
:1015A0000B785A1E534253410370002070470420A9
:1015B00070470022027042708270704710B5044676
:1015C000104807F04FFE0F4807F013FFA8B16378EB
:1015D000012B13D1A1780C4B0A48C1EBC101C1EB1F
:1015E000C1011944312207F00CFFA378013303F045
:1015F0000303A370237803B9637010BD00236370E5
:10160000A370FAE748AA002059100108012A0BD15B
:101610000A78012A0CBF01230023037006D1437806
:1016200023B94270184670470423FBE70023F9E70B
:10163000002202704270704710B504460F4808F04F
:10164000D5FC0E4808F06CFD68B16378012B03D01F
:10165000022B09D0002305E0D9220949074808F0E8
:1016600067FD0223637010BDD9220649034808F0C4
:101670005FFD2378002BF5D00123F3E720D2002073
:1016800026030020FF030020012A0BD10A78012A3B
:101690000CBF01230023037006D1437823B94270A5
:1016A000184670470423FBE70023F9E70022027085
:1016B0007047000008B5037853B1064805F01CFCDC
:1016C000A52805D9AA210448BDE8084008F0B4BD02
:1016D00008BD00BF908A0020A0D70020012A06D1B3
:1016E0000B785A1E53425341037000207047042068
:1016F00070470022C0E900224FF6FF7282607047F7
:101700002DE9F743DFF8689004460E46002517469A
:1017100045F6BF58ABB29F4226D936F815206189ED
:1017200063689142218938BF62819142134488BF26
:1017300022812268636001324245226012D9B3FBE4
:10174000F2F3A16809BA5BBA0091062269464846DD
:10175000ADF8043009F088FC0023C4E900334FF6EB
:10176000FF73A3600135D5E703B0BDE8F08300BF88
:10177000E0D90020024600F57A71002302F8013B0F
:101780009142FBD1A0F8E833A0F8EA3380F8EC33BB
:10179000704700002DE9F341B0F8E8330446002B10
:1017A0003BD01F481F4FDFF884801D4E05F0A4FB7F
:1017B0000546182D31D9B4F8EA33D91003F00702E1
:1017C000635CBA5C13401BBF002300930093182393
:1017D0000ABF1823144A42466121304605F082FFB1
:1017E00094F8EC330133DBB2183D312BADB284F801
:1017F000EC3307D9B4F8EA330133A4F8EA33002311
:1018000084F8EC33B4F8EA23B4F8E8339A42D0D33E
:101810000023A4F8EA33A4F8E83302B0BDE8F0816D
:10182000908A002030130108D8040020580A0020B4
:101830002DE9F74F04460E46904600214FF47A7288
:101840000EF07AFE0823A4F8E833DFF8C4E00023A2
:10185000A4F8EA3384F8EC33DDB2454542DA0021DE
:101860000C20CAB242430EEB02001EF80220BAB3AB
:10187000775D974201F10101F2D190F808B0019033
:101880004FF0000C4FF000455FFA8CF18B45B4F837
:10189000E82325D902F007071A4810F807A0019895
:1018A0004FEAE209476814F8091035EA07000CBF4F
:1018B00041EA0A0121EA0A0104F8091040F2E23182
:1018C0008A420CF1010C06D90023A4F8E833042065
:1018D00003B0BDE8F08F0132A4F8E8236D08D3E728
:1018E0000133B9E7B4F8E823082AEDD0053292B203
:1018F000A4F8E8230448054912B209F0BFFE00200D
:10190000E6E700BF30130108E0D9002038130108D2
:10191000201101080023A0F8E833A0F8EA3380F88A
:10192000EC3370470023C0E90033C0E902330361A0
:1019300000F1140200F6543122F8023B8A42FBD136
:1019400042F20F72C0F8543BC0F8583BA0F85C2B31
:10195000C0F8603BC0F8643BC0F8683BC0F86C3B23
:10196000C0F8703BC0F8743BA0F8783B00F5B55266
:101970004FF0000380F87A3B1C3200F67C330021E4
:1019800023F8021B9A42FBD170470023C0F8603B4A
:1019900080F8753B80F8763B80F8783BC0F8583B80
:1019A00042F20F73A0F85C3B704700002DE9F74F3F
:1019B000BDF83040BDF93880BDF934A0DFF8909013
:1019C00004EB420292B20192C8F1000B019AA242CA
:1019D0003BD000EB4102671C958ABFB2A5EB0A051C
:1019E0004FEAE40E04F007062DB2FA1007F00707DD
:1019F00002345D4513F80EC019F8066019F8077037
:101A0000A4B206DA2CEA060603F80E609D5C2F43AA
:101A100008E0002D11DA2CEA060603F80E609D5C42
:101A200025EA07079F544A1D92B2B2F5B46F24BF4E
:101A3000A1F29B518AB21146C8E74CEA060603F8A8
:101A40000E6045459D5CE2DAEAE703B0BDE8F08F41
:101A5000541301082DE9F04FB0F8543B50F82330EF
:101A60000446924823F07F43584089B088460AF0E4
:101A70003BFEC31EDBB2122B814640F2B880B4F8A5
:101A8000563B8B4DDFF83CE203F22D5189B2B1F5A4
:101A9000B46F24BFA3F1730189B200224FF47A53CB
:101AA0000846049316464FF6FD7A4FF0030B04EBFD
:101AB0004007049BB7F91470BD42B8BF3D46BB4216
:101AC000A8BF3B46B9F1020F04938ABF794B12F9C4
:101AD0000EC012F903C0BCF1010F00F08B80BCF105
:101AE000030F05D0BCF1FF3F40F086803E4401E08B
:101AF00017FB0A66471DBFB2B7F5B46F28BFA0F247
:101B00009B5002F101022CBF80B23846182ACED178
:101B1000D4F8600BB0426ADA049B2B445B101FB20E
:101B2000ED1A44F631435D4345F3CF3504230DF1FF
:101B3000180A0093CDE9017553462046FFF736FF9A
:101B4000B9F1020F5C4969D84FF0000B5B4AD946E6
:101B500011F8013B1AF80BC012F8010B059103EACA
:101B60000C03584004920AF0AFFD0BF1010B8144C5
:101B7000BBF1070F5FFA89F9DDE90421E8D1B9F17A
:101B8000030F34D8B8F1000F39D0A4F8725BA4F871
:101B9000705BA4F86E5BA4F86C5BA4F86A7BA4F895
:101BA000687BA4F8667BA4F8647B002384F8743B0C
:101BB000C4F8606B402384F8753BB4F8563BA4F836
:101BC000583B03F21A4292B2B2F5B46F28BFA3F5A4
:101BD000C372A4F85A2B03F20D1292B2B2F5B46F8D
:101BE0002ABFA3F29343A4F85C2BA4F85C3B09B092
:101BF000BDE8F08FF61B7DE717FB0B667AE794F8DC
:101C0000743B04EB43020133DBB2032BA2F86C5BA1
:101C1000A2F8647BCAD984F8748BC9E74FF0000B33
:101C2000274AD94611F8013B1AF80BC012F8010BEC
:101C3000059103EA0C03584004920AF045FD0BF1AC
:101C4000010B8144BBF1070F5FFA89F9DDE904213B
:101C5000E8D1B9F1030FCAD8B8F1000F16D0A4F833
:101C6000725BA4F8705BA4F86E5BA4F86C5BA4F8DC
:101C70006A7BA4F8687BA4F8667BA4F8647B0023E5
:101C800084F8743BC4F8606B202394E794F8743BA9
:101C900004EB43020133DBB2032BA2F86C5BA2F826
:101CA000647BEDD984F8748BECE700BF6E28760076
:101CB00080C1FFFF891301085C1301086313010849
:101CC0006A1301087113010880F8771B7047000040
:101CD000B0F85A3B3C3370B40A469BB24FF40775D8
:101CE000002400EB43015E1CB6B2B6F5B46FB1F848
:101CF0007C1B05F1FF3528BFA3F29F53ADB20C4406
:101D00002CBF9BB23346002DEBD14FF40773B4FBCD
:101D1000F3F4C4F3072382F8223082F8234024230B
:101D20000121024870BC08F097BE00BFE0D9002036
:101D300070B50446B0F8560B04EB400300299982B5
:101D4000A3F87C2BB4F8542B54F822304FEA430309
:101D5000B8BF43F0010344F8223094F8783B8EB0CA
:101D6000002B6AD101212046FFF774FEB4F85C2BEA
:101D7000B4F8563B934240F09780B4F9662BB4F91F
:101D8000645BB4F96C6B1544B4F9682B1544B4F971
:101D90006A2B1544B4F96E2B1644B4F9702B03F278
:101DA00012311644B4F9722B89B2B1F5B46F1644EE
:101DB00028BFA3F28E2194F8752B8DF814204FF0D4
:101DC000080345F38F0546F38F0628BF89B20093B9
:101DD000CDE9015605AB84222046FFF7E7FD94F8D4
:101DE000753B402B40F0C18004A801F023F80DF1B1
:101DF00013030DF112020DF1150104A801F048F8CA
:101E000094F8772B9DF812309A4248D100239DF820
:101E1000142084F8763B84F8793B9DF813301A43FC
:101E20008DF814200A2B00F29A80DFE803F07A6A1A
:101E300084989898265757985700B4F8581B01F281
:101E40009F539BB2B3F5B46F01F1010292B224BF6C
:101E500001F1FF339BB2B2F5B46F24BFA1F29F52E0
:101E600092B2934206D2984280D390423FF67EAF20
:101E7000002178E79842F8D3FAE72B46B4F9582BBB
:101E80006449654800960AF060F905A92046FFF705
:101E90001FFF022384F8783B002384F87A3B002359
:101EA000C4F8603B84F8753BB4F8563B94F8780B63
:101EB00001339BB2B3F5B46F28BF0023A4F8563B9F
:101EC000B4F8543B01339BB2042B88BF002300308D
:101ED00018BF0120A4F8543B0EB070BD94F8783BB5
:101EE000022BDCD12B46B4F9582B4C494A480096BA
:101EF0000AF02BF905A92046FFF7EAFE9DF81330FA
:101F0000CBE7B4F9582B464900962B4642480AF0D5
:101F10001CF905A92046FFF7DBFE012384F8783B76
:101F2000BDE794F8783B012BF7D100962B46B4F926
:101F3000582B3C49EAE794F8783B012BAFD1B4F930
:101F4000582B394900962B4633480AF0FEF82046B4
:101F500005A9FFF7BDFE2046FFF717FD9FE7009696
:101F60002B46B4F9582B3149EEE7202B12D12B46E2
:101F7000B4F9582B2E49284800960AF0E6F805A92E
:101F80002046FFF7A5FE002384F8763B0123A4F842
:101F9000783B84E794F8783B73B194F8763B01334F
:101FA000DBB20C2B84F8763B06D91B48012108F0E4
:101FB00083FD2046FFF7E9FC94F8783B012B17D10D
:101FC00094F8793B1448042B8DBF20230133DBB2F6
:101FD0008DF8143087BF002384F8793B84F8793B6F
:101FE0008DF8143005AA2223012108F035FD56E7AB
:101FF000022B7FF454AF94F87A3B002B3FF44FAFA1
:1020000043F0400305A920468DF81430FFF760FE29
:1020100045E700BFA1130108E0D90020D213010851
:1020200004140108361401086B140108A1140108F6
:10203000CB1401082DE9F04100240E460546174651
:1020400098462146444509D036F9141037F8142033
:102050002846FFF76DFE01340146F3E70248BDE86C
:10206000F04104F067BF00BF908A002070B50446BD
:1020700000254FF4B9702581208065816573257333
:102080000EF022F9C4E9045504F11C066060A56154
:1020900004F13C03324622F8025B9342FBD104F286
:1020A000EC41002203F8012B9942FBD1F023C4F844
:1020B000EC24C4F8F0342022002130460EF03CFA23
:1020C0000523237409236382024B2046C4E90536A5
:1020D00070BD00BF08050020F0B58FB00A46002390
:1020E00002A94FF4E37540F252564FF6AE274FF671
:1020F0003A6C02F0C004802C1DD0C02C18D0002CEB
:102100000CBF64463C4621F8134001339200042B77
:10211000D2B2EED104AA10300DF000FA00230093E1
:1021200004AA14230221054805F0DCFA0FB0F0BD23
:1021300021F81360E9E721F81350E6E7908A0020C0
:1021400038B5B0F8EC340446E3B13C4804F0D4FEB2
:102150000546142D45D9B4F8EE345A1C2344A4F88E
:10216000EE2493F83C102046FFF7B6FFB4F8EE24B7
:10217000B4F8EC34143D9A42ADB2EAD30023C4F86B
:10218000EC342EE0428903899BB2934212D1037B47
:102190003BB303882BB32A4B1B781BBBD4F8F0242A
:1021A0005F20591C9BB29A4212D9234483F83C0009
:1021B0000B46F6E7438902899A429DBF428901880E
:1021C000038903898CBF42895B189B1A9BB2E1E7A4
:1021D000A4F8EC240023A4F8EE34B4F8EC34002B7B
:1021E000B3D138BD04F13C0304F15D000021258921
:1021F000628992B2AA4201D1227B72B1656862897A
:1022000092B2AA5C1A7021736289013292B2628121
:1022100062892588954298BF618101338342E6D166
:10222000084A04F1840112F8010B03F8010B8B42F8
:10223000F9D14823A4F8EC34CCE700BF908A002001
:10224000CA9A0020FB1401080C234FF4167203FBFA
:102250000121B1F5966F8ABF4FF49663C0F8F01470
:10226000C0F8F03470474189038902889BB28B42E1
:1022700005D1037B002B0CBF10460020704743891B
:102280000189994287BF038940894389008986BFB4
:102290008018C01A181A80B2904288BF0020704778
:1022A00008B5FFF7E0FF2323B0FBF3F0C0B208BD91
:1022B000222AF8B504460D4624D1FFF7D4FF202882
:1022C00022D901231946227B02F0FF002AB1617353
:1022D0000133222BF7D10020F8BD66682289EF5C1C
:1022E00092B2B7542289013292B222812289268881
:1022F000964298BF20812089628992B2824208BFAB
:102300002173E5E70420E7E70520E5E70023C0E9BE
:102310000033C0E90233036100F1140200F23C51C2
:1023200022F8023B9142FBD1C0F83C3542F20F72D9
:10233000C0F84435C0F848354FF00003A0F84025F8
:1023400080F84C3570470023C0F84435C0F8483554
:10235000C0F83C3542F20F73A0F8403570470000DA
:102360002DE9F74FBDF83040BDF93880BDF934A0F4
:10237000DFF8909004EB420292B20192C8F1000B98
:10238000019AA2423BD000EB4102671C958ABFB282
:10239000A5EB0A054FEAE40E04F007062DB2FA1089
:1023A00007F0070702345D4513F80EC019F8066000
:1023B00019F80770A4B206DA2CEA060603F80E60D4
:1023C0009D5C2F4308E0002D11DA2CEA060603F885
:1023D0000E609D5C25EA07079F544A1D92B2B2F534
:1023E000257F24BFA1F28F218AB21146C8E74CEAAB
:1023F000060603F80E6045459D5CE2DAEAE703B0A5
:10240000BDE8F08F22150108B0F83C2550F82230C5
:1024100000294FEA4303B8BF43F001032DE9F04F11
:1024200040F82230B0F83E3500EB43030446998271
:1024300050F822307B4823F07F4391B058400AF097
:1024400053F9022800F29080B4F83E35DFF8E8E155
:10245000754F03F2212189B2B1F5257F24BFA3F185
:10246000730189B20A4618254FF47A5300264FF6B5
:10247000FD784FF0030904EB42001EF901CBB0F9DF
:1024800014008742B8BF07468342A8BF0346BCF189
:10249000010F00F0C280BCF1030F05D0BCF1FF3F7B
:1024A00040F0BD80064401E010FB0866501D80B27C
:1024B000B0F5257F28BFA2F28F2205F1FF352CBF92
:1024C00092B2024615F0FF05D5D1D4F84425B242A8
:1024D0004ADA3B445B100FFA83F8FB1A44F63147A3
:1024E0005F4347F3CF3704230DF11C0A00931822F2
:1024F000CDE9018753462046FFF732FFDFF83CB1B4
:102500004A4AA94612F8013B1AF809101BF8010BB8
:102510000B405840CDE904220AF0D6F809F1010930
:102520000544B9F1070FEDB2049AEBD1032D1BD886
:102530003B4642463E493F4809F0D0FDB4F83E359F
:10254000C4F8446503F20D1292B2B2F5257F24BFA0
:102550006FF4C3729B18A4F84885A4F84A7534BF79
:10256000A4F84025A4F84035B4F84025B4F83E3529
:1025700093423CD1991D89B2B1F5257F28BFA3F2C2
:102580008E21B4F94A350293B4F9483501934FF0DE
:10259000080328BF89B284220093204607ABFFF7C7
:1025A000DFFE06A800F046FC0DF11B030DF11A0238
:1025B0000DF11D0106A800F06BFC94F84C259DF868
:1025C0001A309A420CD19DF81B30032B08D1C3233B
:1025D0008DF81C3007AA22230021164808F03CFA87
:1025E00042F20F73A4F840350023C4F84435B4F820
:1025F0003E3501339BB2B3F5257F28BF0023A4F8F5
:102600003E35B4F83C3501339BB2042B88BF002320
:10261000A4F83C3511B0BDE8F08F361A46E710FB40
:10262000096643E76E28760080C1FFFF2A1501087E
:1026300050150108E0D900203815010831150108AE
:1026400070B505460C4601EB4206B44205D034F99C
:10265000021B2846FFF7D8FEF7E770BD80F84C153F
:10266000704710B50021044600F062F8012104F61D
:10267000546000F05DF8204610BD00002DE9F84FD1
:10268000064600249DF828B0884691469A46204682
:10269000254606F65467A3B29B451BD91AF80430A9
:1026A000042B15D0082B02D1304600F074F839F80D
:1026B000142038F91410304600F01EFA39F81420AE
:1026C00038F914100546384600F016FA0134E2E7EE
:1026D0003846EAE7002D14BF294601460248BDE806
:1026E000F84F04F027BC00BF908A002038B504469C
:1026F0000D4600F0D5F9294604F65460BDE838408F
:1027000000F0CEB938B504460D4600F0CCF92946A4
:1027100004F65460BDE8384000F0C5B910B5044671
:1027200000F043F804F65460BDE8104000F03DB8F6
:102730000023C0E90133C0E903330170436100F1B4
:10274000180200F5E46122F8023B8A42FBD142F212
:102750000F72C0F82037C0F82437C0F82C37C0F803
:102760003037C0F83437C0F83837C0F83C37C0F8D5
:102770004037C0F844374FF00003C0F8282780F8EE
:10278000483700F6526200F24A73002123F8021B18
:102790009A42FBD170470023A0F82A37C0F82037AF
:1027A000C0F82C3780F841377047002342F20F728F
:1027B00080F8413780F8423780F84637C0F8203734
:1027C000C0F82437C0F82827C0F82C37704700001D
:1027D0002DE9F74FBDF83040BDF93880BDF934A080
:1027E000DFF8849004EB420292B20192C8F1000B30
:1027F000019AA24235D001F10C02671C30F8125048
:10280000BFB2A5EB0A054FEAE40E04F007062DB2AD
:10281000FA1007F0070702345D4513F80EC019F8E7
:10282000066019F80770A4B206DA2CEA060603F867
:102830000E609D5C2F4308E0002D0ADA2CEA0606A4
:1028400003F80E609D5C25EA070705319F5489B2A5
:10285000CEE74CEA060603F80E6045459D5CE9DAD2
:10286000F1E703B0BDE8F08F7C150108B0F8203720
:102870002DE9F04F00EB830304465B68814823F0A9
:102880007F43584089B0884609F02EFFC31EDBB253
:10289000122B814640F29880B4F822177A4DDFF867
:1028A000FCE1733989B200224FF47A530F46049346
:1028B00016464FF6FD7A4FF0030B07F10C00049B10
:1028C00034F910008542B8BF05468342A8BF0346CD
:1028D000B9F1020F04938ABF6C4B12F90EC012F9C2
:1028E00003C0BCF1010F72D0BCF1030F04D0BCF1E6
:1028F000FF3F6ED1064401E010FB0A660132053746
:10290000182ABFB2D9D1D4F82C07B0425CDA049BA4
:102910002B445B101FB2ED1A44F631435D4345F37F
:10292000CF3504230DF1180A0093CDE90175534604
:102930002046FFF74DFFB9F1020F55495BD84FF024
:10294000000B544AD94611F8013B1AF80BC012F893
:10295000010B059103EA0C035840049209F0B4FE00
:102960000BF1010B8144BBF1070F5FFA89F9DDE937
:102970000421E8D1B9F1030F26D8B8F1000F2BD00C
:10298000A4F83E57A4F83C57A4F83A57A4F838578F
:10299000A4F83677A4F83477A4F83277A4F830771F
:1029A000002384F84037C4F82C67402384F841376B
:1029B000B4F82237A4F82437A3F5C37203F20D1339
:1029C000A4F82627A4F8283709B0BDE8F08F361AF6
:1029D00094E710FB0B6691E794F8403704EB430251
:1029E0000133DBB2032BA2F83857A2F83077D8D9DD
:1029F00084F84087D7E74FF0000B274AD94611F8F3
:102A0000013B1AF80BC012F8010B059103EA0C0305
:102A10005840049209F058FE0BF1010B8144BBF1C0
:102A2000070F5FFA89F9DDE90421E8D1B9F1030F55
:102A3000CAD8B8F1000F16D0A4F83E57A4F83C57F6
:102A4000A4F83A57A4F83857A4F83677A4F834779E
:102A5000A4F83277A4F83077002384F84037C4F81C
:102A60002C672023A2E794F8403704EB430201339C
:102A7000DBB2032BA2F83857A2F83077EDD984F8EF
:102A80004087ECE76E28760080C1FFFFB115010892
:102A9000841501088B150108921501089915010884
:102AA00080F843177047A0F84417704730B4B0F867
:102AB000264704F13C0304F51674A5B20A469BB2FE
:102AC0000024591C00EB4303B3F84A371C448BB273
:102AD000AB42F6D14FF40773B4FBF3F4C4F307230E
:102AE00082F8223082F8234001780248242330BC47
:102AF00007F0B2BFE0D9002070B5B0F82A3704461D
:102B00000133B4F844579BB29D42A0F82A378EB0E7
:102B100090F8460704D9003018BF01200EB070BDF0
:102B2000B4F82237B4F828579D42F4D3B3F5617F47
:102B3000F1D204EB43050029A5F84A272983B4F80C
:102B4000205704EB85056A684FEA4202B8BF42F09D
:102B500001026A60002865D1A3F5C8735A2B03D817
:102B600001212046FFF782FEB4F82837B4F8221777
:102B700099427BD1B4F93237B4F93057B4F9386798
:102B80001D44B4F934371D44B4F936371D44B4F943
:102B90003A371E44B4F93C371E44B4F93E371E445C
:102BA00094F841378DF8143045F38F05082346F328
:102BB0008F06A1F28E210093CDE9015605AB842248
:102BC00089B22046FFF704FE94F84137402B40F0CD
:102BD000C38004A800F02EF90DF113030DF11202C9
:102BE0000DF1150104A800F053F994F843279DF85E
:102BF00012309A423AD100239DF8142084F84237CB
:102C000084F847379DF813301A438DF814200A2BA7
:102C100000F29780DFE803F0695478959595123BB0
:102C20003B953B00B4F82427511E89B28B429BD3BD
:102C3000013292B2934297D8002192E723787549E6
:102C40007548002B18BF0222B4F9243708BF0122AF
:102C5000CDE9005609F0C0FA05A92046FFF726FF86
:102C6000022384F84637002384F84837B4F8223723
:102C700094F846070133A4F82237B4F8203701331B
:102C80009BB2042B88BF0023A4F8203743E794F8B5
:102C90004637022BEAD1237860495F48002B18BFE2
:102CA0000222B4F9243708BF0122CDE9005609F009
:102CB00093FA05A92046FFF7F9FE9DF81330D3E7F4
:102CC00023785749CDE90056002BB4F9243714BFB7
:102CD00002220122504809F07FFA05A92046FFF799
:102CE000E5FE012384F84637C0E794F84637012B08
:102CF000F7D123784B49002BCDE90056B4F924379E
:102D000014BF02220122E5E794F84637012BADD12A
:102D100023784549CDE90056002BB4F9243714BF78
:102D2000022201223C4809F057FA05A92046FFF784
:102D3000BDFE002384F8463742F20F73A4F828370B
:102D400094E723783949002BCDE90056B4F92437AC
:102D500014BF02220122E5E7202B18D12378344941
:102D60002D48002B18BF0222B4F9243708BF0122D6
:102D7000CDE9005609F030FA05A92046FFF796FE86
:102D8000002384F842370123A4F846376EE794F80D
:102D9000463793B194F842370133DBB20C2B84F8F9
:102DA00042370AD921781C4807F086FE002384F8B0
:102DB000463742F20F73A4F8283794F84637012BB0
:102DC00017D194F8473721781348042B8DBF20235F
:102DD0000133DBB28DF8143087BF002384F8473706
:102DE00084F847378DF8143005AA222307F034FE03
:102DF0003CE7022B7FF43AAF94F84837002B3FF4BE
:102E000035AF43F0400305A920468DF81430FFF795
:102E10004DFE2BE7C9150108E0D900200016010876
:102E20003816010870160108AB160108E7160108EC
:102E30001717010870470000B1F5006F10B50DD3EA
:102E400007484FF4802340F675440B4201D15B08DC
:102E5000FBE7DA0A624351400142F6D1084610BD51
:102E600000F8FFFF10B54C780B78E40004EBC324A6
:102E70008B7804EB53142146FFF7DEFF034B53F826
:102E800020006040C0F3C72010BD00BF50170108EC
:102E900073B51E464B7B0C7B15469A0942EA8402A9
:102EA0000C7DC97C8DF8042089009B0023F03F0332
:102EB00001F03C01194341EA9411A4008DF805107A
:102EC00024F00F0401A98DF80640FFF7CBFF03099A
:102ED00000F00F002B70307002B070BD02F00F02D6
:102EE00042EA0111C8B2197B124A21F03F0141EABE
:102EF000900130B532F810401973597BE5B2AA0839
:102F000001F00F0141EA801102F0300001435973D2
:102F1000D97C02F00F0221F00F0111431A7DD97400
:102F200002F00302A40A42EA851204F03C042243A0
:102F30001A7530BD503701082DE9F04100254FF4D6
:102F4000B976044605810680458145730573304690
:102F50000DF0BAF9258360602682658330462577B7
:102F600065770DF0B1F9C4E9085504F12C066061EC
:102F7000A56204F14C02334623F8025B9A42FBD16E
:102F80004FF0000384F84C3004F16E0104F14D035E
:102F9000002203F8012B9942FBD104F16F0884F859
:102FA0006E2004F17B074346002203F8012B9F4269
:102FB000FBD104F187023B46002103F8011B9A4232
:102FC000FBD104F1AF03002102F8011B9342FBD1B6
:102FD00004F1D702002503F8015B9A42FBD1C4E952
:102FE0003655C4E93855A4F8E8502022002130466F
:102FF0000DF0A2FA052384F82030092363840A4BDC
:103000000A49C4E909360C2238460DF0FBF90C22B6
:10301000064940460DF0F6F9C4E93855A4F8E850E1
:103020002046BDE8F08100BF620500205839010844
:10303000092A2DE9F04104460D4627D10C22002132
:103040007B30134E134F0DF077FA002316F8011B57
:1030500004EBD10001F0070103F0070817F801C0E5
:1030600090F87B20D910013315F801E017F808100B
:103070001EEA010F14BF42EA0C0222EA0C02442BA2
:1030800080F87B20E2D10020BDE8F0810420FBE73E
:103090006439010850390108012A04D1097801294D
:1030A00003D0022908D0042070470023C0F8E03084
:1030B00080F8E810184670470023C0F8E43080F824
:1030C000E920F7E7002380F84C10C0E93733C0F857
:1030D000E430A0F8E8307047002914BF052300232E
:1030E00080F84C30704700002DE9F04194B006465E
:1030F0001746002403AD4FF4E37240F252504FF6EE
:10310000AE2C4FF63A6E01F0C003802B2AD0C02BB4
:1031100025D0002B0CBF7346634625F814300134CC
:103120008900042CC9B2EED10DF11408142200213B
:1031300040460DF001FA23460AAA294606F120006E
:103140008DF81E700CF0EAF9CDF8008014230AAA5D
:103150000221064804F0C6FA14B0BDE8F08125F853
:103160001400DCE725F81420D9E700BF908A00207E
:103170001B4B1B78622B10B512D100F1870300F1B5
:10318000A8025F24002183F8284003F8011B934222
:10319000F9D12123A0F8D8300023A0F8DA3010BDEF
:1031A0005F2BF9D100F1870300F18E025524002135
:1031B00083F8284003F8011B9342F9D15F2380F87C
:1031C000B63000F1960200F18F03FF24002183F84E
:1031D000284003F8011B9342F9D10F23DAE700BF1F
:1031E000C99A002037B500F14D040D462122074948
:1031F00020460DF007F901A8FFF71CFE234609221F
:10320000294601A8FFF76AFE03B030BDA8390108BE
:1032100000230381437343810373704700230383B7
:103220004377438303777047D0F8DC00704708B5D5
:10323000FFF719F82323B0FBF3F0C0B208BD08B5BF
:103240001030FFF710F82323B0FBF3F0C0B208BD35
:10325000222AF8B504460D4633D1FFF704F820289A
:1032600031D994F8E83033B100232381637363814B
:1032700084F8E830237301231946227B02F0FF0013
:1032800052B161730133222BF7D1114B1878E0B999
:10329000012384F84C30F8BD66682289EF5C92B255
:1032A000B7542289013292B222812289268896421D
:1032B00098BF20812089628992B2824208BF21731F
:1032C000E0E70420E7E70520E5E70020E3E700BFAB
:1032D000CA9A0020222AF8B504460D4634D110308F
:1032E000FEF7C1FF202831D994F8E93033B100232B
:1032F00023836377638384F8E930237701231946B6
:10330000227F02F0FF0052B161770133222BF7D107
:10331000104B1878E0B9012384F84C30F8BD666989
:10332000228BEF5C92B2B754228B013292B222838D
:10333000228B268A964298BF2083208B628B92B282
:10334000824208BF2177E0E70420E7E70520E5E7B0
:103350000020E3E7CA9A0020428903899BB2934286
:1033600005D1027B02F0FF0382B1008870474389D8
:1033700002899A429DBF42890389008803898BBFD5
:103380004089C018181A801A80B2704718467047D2
:10339000F8B5D0F8DC300133C0F8DC30D0F8E030DC
:1033A0000133C0F8E030D0F8E4300133C0F8E43045
:1033B00090F86E300B2B04460F46164600F16F0551
:1033C00013D9002380F86E302046FFF7C5FF002890
:1033D00068D104F11000FFF7BFFF002862D1354922
:1033E0000C2228460DF00EF801E0002BECD094F8EA
:1033F0006E100322294404F1AF000DF003F8012EF2
:103400000CBF0823042384F88930D4F8DC30002072
:10341000132B84F8870084F8880006D904EB061083
:10342000FFF79AFF003018BF01207B1E94F86E2032
:1034300059425941002A39D0B2F1090C18BF4FF056
:10344000010C012594F8AF30012F80EA010643EA10
:10345000C0100CBF08230023184394F8B03084F840
:10346000AF0043EAC513694043EACC03AE4214BF40
:10347000022500252B4384F8B03094F8B130614523
:1034800014BF202100211943664514BF02260026DF
:10349000032331431A4484F8B110C4F8D83084F8B7
:1034A0006E20F8BD0C2204F17B019AE715464FF01F
:1034B000010CC7E758390108F8B500EB01160546BD
:1034C00030460C46FFF748FF202809D9D5F8DC30F4
:1034D000132B05D904F1380355F82330052B10D8E8
:1034E0002C44002284F8E82005F14D0305F16E011B
:1034F00013F8010B83F861008B4283F83920F7D170
:1035000026E005EB041405F1870105F1A807234621
:103510000020B4F808C0628992B2624501D1227BD2
:1035200092B1D6F804C05A8992B21CF8022081F8F0
:10353000282018735A89013292B25A815A89B6F8F2
:1035400000C0944598BF588101F8010B8F42E0D12B
:103550002123C5F8D830F8BD38B590F84C30044672
:10356000002B41D0B0F8D820F2B1234803F0C4FCBE
:103570000546142D38D9B4F8DA30E218013392F840
:10358000AF1092F88720A4F8DA302046FFF7ACFDA0
:10359000B4F8DA20B4F8D830143D9A42ADB2E8D38A
:1035A0000023C4F8D8301FE0013B042B1DD8DFE80E
:1035B00003F0031C100A15000021FFF77DFF042310
:1035C00084F84C300CE000220121FFF7E1FE0323D8
:1035D000F6E70121FFF770FF0223F1E7FFF7C8FDCF
:1035E000B4F8D830002BC0D138BD01220021FFF73C
:1035F000CFFE0123E4E700BF908A002003460022AB
:1036000030B503F8082B002400F130020025E3E870
:1036100002459A42FBD100F5D0530C33002122F829
:10362000021B9342FBD100F5EE511A460C310023E8
:1036300022F8023B9142FBD141F6CC522F498350F4
:1036400041F6D052815041F6D4522D49815041F675
:10365000D85242F20F71815241F6DC524FF0000114
:10366000835000F5EF52136041F6E452835241F665
:10367000E652815441F6E8520021835041F6EC5263
:10368000835041F6F052835041F6F452835041F694
:10369000F852835000F5EF5200F5F5531C32043315
:1036A00042F8041B9342FBD11A4600F5FA530C333F
:1036B000002142F8041B9342FBD11A4600F5FF5348
:1036C0001433002142F8041B9342FBD11A4600F543
:1036D00002531C33002142F8041B9342FBD100F536
:1036E00003510631002203F8012B9942FBD142F22B
:1036F000C803C25042F2CC03C25230BD00000F27B3
:103700000F270F2741F6DC5200230370835000F58A
:10371000EF520F49136041F6CC52835041F6D0521C
:10372000815041F6D4520B49815041F6D85242F2B1
:103730000F71815241F6E452835241F6E6528354AE
:1037400042F2C802835042F2CC028352704700BF5B
:1037500000000F270F270F2710B542F2CC030446B5
:10376000C05AB0B142F2C8032B22E358B3FBF0F3C6
:10377000C3F3072081F8290081F82A30064807F0B2
:10378000D7F842F2C8020023A35042F2CC02A3525F
:1037900010BD2922F2E700BFE0D9002010B542F2A7
:1037A000CC030446C05AA0B142F2C8030E22E3582B
:1037B000B3FBF0F3C3F3072008734B73064807F01D
:1037C000E3F842F2C8020023A35042F2CC02A35213
:1037D00010BD0C22F2E700BFE0D9002070B541F621
:1037E000CC530446C35A0133002150F833302048EB
:1037F00023F07F43584008F08BFF022835D841F66C
:10380000D0531C4DE25A02F26D139BB2B3F5F07F18
:1038100024BFA2F173039BB21820002103F60452C7
:1038200004EB420215F8016BB2F90420DEB1891AEB
:103830005A1D92B2B2F5F07F24BF6FF4ED729B185F
:1038400000F1FF302CBF9BB2134610F0FF00E5D112
:1038500041F6DC53E2588A4204DAE15041F6CE5395
:10386000E052012070BD1144E2E70020FAE700BFFA
:103870005076550085410108F8B541F6CC530578DE
:10388000C35A0133044650F83330364823F07F439F
:10389000022D80EA03004FF0000118BF002508F058
:1038A00037FFA8425BD841F6D0532F4EE25A02F2BE
:1038B0006D139BB2B3F5F07F24BFA2F173039BB2EB
:1038C0001820002503F6045104EB410116F8017B92
:1038D000B1F90410002F40D06D1A591D89B2B1F50D
:1038E000F07F24BF6FF4ED77DB1900F1FF302CBFC0
:1038F0009BB20B4610F0FF00E4D104F5EF531968BA
:10390000A94229DA1D6041F6E45341F6D251E05252
:1039100041F6D453E252531D9BB2B3F5F07F24BF5E
:103920006FF4ED7013186352531C9BB2B3F5F07F24
:1039300028BF6FF4EF7341F6D85128BFD3186352F4
:1039400002F2DF139BB2B3F5F07F41F6D65128BFE8
:1039500002F1FF3363520120F8BD0D44BDE70020A2
:10396000FAE700BF68B4AA006D41010838B5044603
:103970000D46FFF733FFB0B141F6E6530522E2549E
:1039800041F6CE52A35A03F11800013324F8105027
:10399000A35242F2C8020023A35042F2CC02A35227
:1039A0000123237038BD2046FFF766FF0028F9D0B9
:1039B0000649074807F080FB0121064803F0BAFAE0
:1039C0000121044803F0C2FA0223EAE70742010892
:1039D000E0D90020908A00202DE9F043079EBDF831
:1039E00020C0DFF84CE0DFF84C800025ACB29C42F0
:1039F0001BD231F9129004F00704EF10B9F1000F57
:103A0000F05DB4BF18F804401EF8044002F105024E
:103A100092B2B4BF20432040624528BFA2EB0C0203
:103A2000F05528BF92B20135E0E7BDE8F08300BF52
:103A3000DA3B0108E23B01082DE9F04141F6CC53A5
:103A40000446C35A0133002550F83330504886B03D
:103A50005840294608F05CFE012818D84D494E48C8
:103A600007F02AFB29464D4803F064FA29464B48E3
:103A700003F06CFA484806F0D1FF41F6DC53E550FC
:103A800004F5EF531D60257006B0BDE8F08141F6E6
:103A9000D653E15A41F6D853E25A41F6D0539142F7
:103AA000E35A24D2994204D89A4202D32046FFF71F
:103AB000E3FE41F6E45834F80830952B1AD938491A
:103AC000354807F0F9FA0021344803F033FA0021B1
:103AD000324803F03BFA304806F082FF41F6DC52F0
:103AE0000023A35004F5EF5213602370CCE79942F2
:103AF000DAD8DBE741F6D05341F6D857E25AE35B18
:103B00009A42C1D14FF4F07341F6D25602AD0193FF
:103B1000009504F5D0516023A25B0C312046FFF7DD
:103B20005BFF34F808201521B2FBF1F301FB1323EE
:103B30009BB233BBA2B955238DF8113041F22D63EE
:103B4000ADF8123041F6D6531649E35E0193E35FB8
:103B5000009341F6D453A25FE35E0F4808F03CFBAC
:103B600029462046FFF71AFE41F6E452A35A0133D4
:103B7000A35241F6DC520023A35004F5EF54236016
:103B800082E70C222946044806F0FEFEECE700BF5F
:103B90005E13AAAA9D410108E0D90020908A002066
:103BA000BD410108E541010841F6E8532DE9F04F18
:103BB000C45841F6EC5304F0070250F803E00B68D8
:103BC0000EEB030841F6F4534746C6580B6906EB63
:103BD000030CE045A8BF6746E308E04500EB83031C
:103BE000B5BFDFF8F8C0DFF8F8C01CF802C01CF859
:103BF00002C041F6FC5941F6A46853F80950B4BF1D
:103C00000CEA05054CEA050543F809504D68AE4439
:103C10004D692E44B645F446A8BFB446B645B4BF78
:103C20002E4E2F4E53F80850B5BFB65CB65C3540EB
:103C3000354343F8085041F6F0558E6950F805E0D9
:103C40008D680EEB050A41F6F855D046455905EB4F
:103C50000609CA45A8BFC846CA45B5BFDFF87C906B
:103C6000DFF87C9019F8029019F8029041F64C7B2D
:103C700053F80B60B4BF09EA060649EA060643F8A2
:103C80000B60CE68C96976440D44AE4241F6F479C2
:103C9000B646A8BFAE46AE4253F8091019DA0F4D2A
:103CA000AA5C0A4043F8092041F6EC530134C7509E
:103CB00041F6F05340F803C041F6F45340F8038056
:103CC00041F6F85340F803E041F6E853C450BDE82C
:103CD000F08F034DAA5C0A43E4E700BFCA3B01082A
:103CE000D23B010870B5D1E9003288B083F00105FC
:103CF000D11882F001062A44334400917419CDE9A9
:103D00000512694601940293CDE903240793FFF756
:103D10004BFF08B070BD0000F0B500222F4D304FB2
:103D200040F24911134642F29C04032B1DD8DFE8F0
:103D300003F002203846CE1006F27E7601F007032B
:103D400000EB860615F803C073681CEA030318BF6E
:103D5000022300EBD20C02F007061CF804E0BE5D63
:103D600006EA0E060CF80460013211F1FF31DCD2D4
:103D7000F0BDCE1006F5F56601F0070300EB8606F0
:103D800015F803C073681CEA030318BF022300EB95
:103D9000D20C02F007061CF804E0AE5D46EA0E06FF
:103DA000E0E7CB1003F2D27300EB830301F00706C8
:103DB0005B68AE5D1E420CBF01230323C9E7CE1032
:103DC00006F2FC7600EB860601F0070C766815F823
:103DD0000CC01CEA060F08BF0123D8E7D23B01083C
:103DE000CA3B010830B5124D4FF0FF32481E01F1B9
:103DF000260410F8013F5340DBB2C2F3072235F826
:103E00001330844283EA02031A46F2D1DB439BB2A9
:103E100091F82700DAB2904207D191F82820B2EB4E
:103E2000132F0CBF0120002030BD0020FCE700BF95
:103E3000CA3901082DE9F0430546904899B0164665
:103E40004B1E01F1520413F8017F10F8012B9C4224
:103E500082EA07021A70F6D1002303AA184601333A
:103E6000542B02F8010BFAD1DFF818E20022744655
:103E700080270EEB4200B2F5257F64DB41F6EC5261
:103E80000024AC5041F6F0524FF08008AC5041F69F
:103E9000F4524027AC5041F6F852AC5041F6E8528B
:103EA000AC5018AB03EBE403284613F8542C04F091
:103EB000070328FA03F1114227FA03F314BF012183
:103EC0000021134214BF012300230291023401A9EF
:103ED0000193FFF707FFB4F5257FE2D1FFF71CFF41
:103EE000731E06F12802002103F8011F9A42FBD13C
:103EF00040F24912624F104642F29C044FF0010C0E
:103F000005EBE20102F0070811F804E017F80810C9
:103F10001EEA010FA0EB020309D0D90803F0070342
:103F200016F801E00CFA03F343EA0E03735412F19E
:103F3000FF32E5D231462846FFF754FF19B0BDE8FD
:103F4000F0831A4697E7D31011F803C01CF0010F55
:103F50000CD090F8008018AB9844437818F8549C23
:103F600027FA03F343EA090308F8543C1CF0020F54
:103F70000CD090F8028018AB9844C37818F8549C81
:103F800027FA03F343EA090308F8543C1CF0040F32
:103F90000CD090F8048018AB9844437918F8549CDE
:103FA00027FA03F343EA090308F8543C1CF0080F0E
:103FB0000CD090F8068018AB9844C37918F8549C3C
:103FC00027FA03F343EA090308F8543C131DB3F539
:103FD000257F00F10800B4DA1CF0100F0FD014F8A0
:103FE00013000DF1600804EB430340445B7810F8C4
:103FF000548C27FA03F343EA080300F8543C1CF0FE
:10400000200F10D0531D0DF1600814F8130004EBBD
:10401000430340445B7810F8548C27FA03F343EAD7
:10402000080300F8543C1CF0400F10D0931D0DF114
:10403000600814F8130004EB430340445B7810F865
:10404000548C27FA03F343EA080300F8543C1CF0AD
:10405000800F10D0D31D0DF1600C14F8130004EB89
:10406000430360445B7810F854CC27FA03F343EA27
:104070000C0300F8543C0832FBE600BFEA3B0108A1
:10408000D23B0108453C010870B541F6E655A2B0A7
:10409000435D04460E4623B1FFF7A0FB635D013B81
:1040A000635541F6CE52A35A03F1180001339BB277
:1040B00024F81060A35240F6E942934219D140F629
:1040C000E4430DAD0193052204F130012046009533
:1040D0004FF42573FFF780FC02AA29462046FFF71C
:1040E000A9FE78BB41F6DC532070E05004F5EF5395
:1040F000186041F6CE53E25A40F6EE439A421FD181
:1041000041F6E4530022E25241F6D0534FF0EE72F2
:10411000E25041F6D453124AE25041F6D8524FF4DD
:10412000EC73A3524FF4EB72CDE900320D490E4807
:1041300040F2D7134FF4EE7208F04EF802232370CA
:1041400022B070BD0121094802F0F4FE01210748A8
:1041500002F0FCFE02A92046FFF7FEFAC9E700BF05
:10416000D701D60128420108E0D90020908A00201A
:104170002DE9F04700F5EE5804460D4616461F4659
:104180004FF0000908F10C081FFA89F39F424AD941
:1041900042F2C80236F81910A3580B44A35042F259
:1041A000CC0241F6D05AA35A0133A352B8F80020EA
:1041B00035F9191004EBC202D2E90230DB18404194
:1041C0000029B8BF43F00103C2E9023034F80A30D5
:1041D00003F6045304EB430399802378012B05D0A5
:1041E000022B1CD02046FFF7C1FB02E02046FFF760
:1041F0004BFF34F80A3001339BB2B3F5F07F28BF90
:10420000002324F80A30B8F8003001339BB2042BA5
:1042100088BF0023A8F8003009F10109B4E720465F
:10422000FFF70AFCE5E7BDE8F087000070B504463B
:1042300000254FF4B9702581208065816573257351
:104240000CF042F8C4E9045504F11C066060A56155
:1042500004F14403324622F8025B9342FBD104F599
:104260002771002203F8012B9942FBD13C23C4F8AB
:104270009C22A4F8A0322822002130460CF05CF9E0
:104280000523237403236382024B2046C4E90536C9
:1042900070BD00BFBC0500202DE9F04F501E99B045
:1042A00003AD02F152090346002403F8014F99457A
:1042B00005F8014BF9D14B1E0093DFF8C0A1002394
:1042C0001D461C46009911F8016FAC46CDE9001659
:1042D00025461E460027012101FA07F401992142D3
:1042E00014BF0124002404EB0C0EAC44A4441CF0C5
:1042F000010F0EF0010E0CD006F0070C18A91AF8E9
:104300000C8001EBD60C1CF854BC48EA0B080CF8E6
:10431000548CBEF1000F0ED006F1010C18A901EB70
:10432000DC0E0CF0070C1EF8548C1AF80CC04CEA8A
:10433000080C0EF854CC0137082F06F10206AC46E3
:1043400040F088801033B3F5287FBBD1DFF830C14F
:104350000023644601250CEB4301B3F5257F7DD294
:1043600018AE06EBD30616F8546C37060AD591F84A
:1043700000E04F7812F80E8005FA07F747EA0807C1
:1043800002F80E7077060AD591F802E0CF7812F89D
:104390000E8005FA07F747EA080702F80E70B7061D
:1043A0000AD591F804E04F7912F80E8005FA07F764
:1043B00047EA080702F80E70F7060AD591F806E0FA
:1043C000CF7912F80E8005FA07F747EA080702F8D6
:1043D0000E701F1DB7F5257F01F108013CD2310792
:1043E0000BD514F817E004EB4707797812F80E7034
:1043F00005FA01F1394302F80E1071070CD5591D69
:1044000014F8117004EB410112F807E0497805FA3D
:1044100001F141EA0E01D155B7070CD5991D14F8E9
:10442000117004EB410112F807E0497805FA01F137
:1044300041EA0E01D155F1070AD5D91D14F81160D2
:1044400004EB4101975D497805FA01F13943915533
:10445000083380E725463EE73B467EE7064A10F8EC
:10446000011F12F8013B484583EA01030370F6D1AE
:1044700019B0BDE8F08F00BF514201084942010860
:10448000AC42010870B59AB00C460023012202A983
:1044900040F249354FF6B74632EA040C0CBF21F81A
:1044A000136021F8135001335200082BD2B2F3D11C
:1044B00006AA10300BF032F80023009306AA282336
:1044C0000121024803F00EF91AB070BD908A002055
:1044D00001EB4101490001F59671B1F5167F8ABFE4
:1044E0004FF41673A0F8A012A0F8A032704703464C
:1044F00000895A8992B2824203D11A7B02F0FF00EE
:1045000082B158685A8992B2825C0A70002119738C
:104510005A89013292B25A815A891888904298BFBA
:10452000598101207047000070B542890389B0F8B5
:104530009C529BB29342A2B0044620D1037B0BB1A4
:1045400003880BB9002D5BD0638962689BB2D35C92
:10455000002B4ED1002D56D15C4B1B78EBB9B4F833
:10456000A002AA22A9B28842B4F89C323DD9591CB3
:104570002344A4F89C12013583F84420F2E74389D0
:1045800002899A429DBF42890188038903898CBFB1
:1045900042895B189B1A9BB2D3E70DF103012046B9
:1045A000FFF7A5FF01AB591920460135FFF79FFF23
:1045B000292DF7D10DF13202204601A9FFF76CFE3B
:1045C0004AF2EA63ADF83030B4F89C320CA800220D
:1045D000991814FA81F1013210F8015B81F8445006
:1045E000552AF5D15533A4F89C320023A4F89E3205
:1045F00003E0012B06D0022B38D0B4F89C3213B95B
:1046000022B070BDE5B1324802F076FC0546282D97
:10461000F6D9B4F89E325A1C2344A4F89E2293F88B
:1046200044102046FFF72EFFB4F89E22B4F89C32C7
:10463000283D9A42ADB2EAD30023C4F89C32DFE7AA
:104640000CA92046FFF753FF0C25B4F89C124B1C15
:104650004431A4F89C3221442046013DFFF747FF36
:1046600015F0FF05F1D1A4F89E52C6E7002DCAD17E
:104670000CA92046FFF73BFFB4F89C3203F112016E
:1046800089B25522C8267A25E01880F84420581CA3
:1046900014FA80F080F84420981C14FA80F080F816
:1046A0004420D81C14FA80F080F84420181D14FA15
:1046B00080F080F84460581D063314FA80F09BB2F5
:1046C0008B4280F84450DFD18DE700BFCA9A0020AA
:1046D000908A002008B5FDF7C6FD0D23B0FBF3F06E
:1046E000C0B208BD037B10B503F0FF021BB101236C
:1046F0004373002010BD446803899BB2E1540389D1
:1047000001339BB2038103890188994298BF0281DA
:10471000028943899BB293424FF0010308BF0373A0
:104720001846E7E7292A70B506460C4619D1FDF769
:104730009AFD292806D802B20B490C4806F09EFFC4
:10474000052070BD00213046FFF7CCFF651E2834E0
:1047500015F8011F3046FFF7C5FFA542F8D100202C
:10476000EFE70420EDE700BFD4470108E0D90020BF
:104770000C2A70B506460C4619D1FDF774FD0C28BD
:1047800006D802B20B490C4806F078FF052070BD30
:1047900001213046FFF7A6FF651E0B3415F8011FF7
:1047A0003046FFF79FFFA542F8D10020EFE7042035
:1047B000EDE700BF11480108E0D9002010B504461C
:1047C000FDF751FD024628B90548064906F056FF97
:1047D000052010BD02212046FFF784FF0020F8E7E6
:1047E000E0D90020F447010800224FF48041026024
:1047F00081808271826002737047C9010180D20199
:104800004942418082807047B0F9003030B593B1A1
:10481000827932B98B420ADC0123837100238360E1
:1048200003738368B3F5166F07D900211AE0B0F956
:1048300002308B42F0DA084630BD047B0E49B0F9F5
:10484000045051F82410621CD2B20B2A027301FBEF
:1048500005F188BF00224FEAE13188BF027301F3FE
:104860000F0109B2013342F6DF6293428360E2D95D
:1048700000238371DFE700BF3048010838B500F638
:1048800078450446284602F0AAF8A0B1284602F06E
:10489000ABF880B10849094806F00EFC002384F803
:1048A0004C3C284602F091F804F6584002F08DF88E
:1048B000012384F8983C38BD6F490108E0D90020F5
:1048C000034670B5D0E90254D0E904026A431E6879
:1048D00000FB0122986906FB0022D8695E6800FB94
:1048E0001422186A06FB1020C01300F30E0000B259
:1048F000C3E90054C3E9021070BD38B50025044671
:1049000080F84C5C00F5456002F05FF804F6584012
:1049100002F05BF804F6684002F057F804F54760CF
:1049200002F053F804F6784002F04FF804F54860BE
:1049300002F04BF804F6884002F047F804F54960AD
:1049400002F043F804F5406001F026FD04F58060B4
:1049500001F030FF04F5006001F02CFF204601F06B
:1049600029FF04F5446002F017F8A4F8585D04F537
:104970005660A4F85A5D84F85D5D84F85C5D02F0D1
:1049800055F804F5526001F0F3FD04F6284001F0FB
:10499000C3FF84F8985CA4F8805D38BD2DE9F74F1B
:1049A0009DF834409DF830509DF83CB0C4EB0414A1
:1049B0009946A4009DF838300193A4B29DF8483080
:1049C00080F84F3C0F4690469DF840109DF84420DB
:1049D00080F84D1C00F5466A80F84E2C06460022F1
:1049E0002146504601F0DFFFC5EB0511890089B271
:1049F000002206F5456001F0D6FF14B1504601F0E3
:104A0000DFFF019B0C9342464B4639463046CDF8BA
:104A100034B003B0BDE8F04F01F0C2BD2DE9F0475E
:104A2000BDF824709DF820609DF828500446884603
:104A3000914600213A4600F678409A4601F0B3FFCD
:104A40002EB13A46314604F5476001F0ACFFCDE99E
:104A5000085553464A46414604F58060BDE8F04794
:104A600001F09EBD2DE9F04F85B01D469DF8383010
:104A700000939DF83C3001939DF84030029304462A
:104A80009DF85C309DF84CE09DF850C09DF85400B6
:104A90009DF844B0039316469DF864309DF8582065
:104AA000A4F81C3D84F818ED84F819CD9DF848A0B1
:104AB00084F81A0D84F81B2D04F6584000229DF846
:104AC00060709DF868909DF86C8001F06CFF00228A
:104AD000594604F6684001F066FF0022514604F58D
:104AE000486001F060FF314604F5446001F022FFA8
:104AF0003246494604F60850FFF77FFE3A460399CE
:104B0000A4F83E8D04F6284001F083FEDDE9002381
:104B1000294604F5406001F0B5FB40B9029A2946E8
:104B200004F5426005B0BDE8F04F01F03FBC05B0B0
:104B3000BDE8F08F70B401269DF81040A0F81E2D3E
:104B40001D4680F83C6DBDF80C302A46CDE9034483
:104B500000F5006070BC01F023BD000070B5044694
:104B60000D4600F5456001F033FF294604F6584034
:104B700001F02EFF294604F5466001F029FF294681
:104B800004F6684001F024FF294604F5476001F06F
:104B90001FFF294604F6784001F01AFF04F6884604
:104BA000294604F5486001F013FF2946304601F01C
:104BB0000FFF04F54960294601F00AFF304601F075
:104BC0000EFF68B1304601F00FFF48B194F84C1C5D
:104BD000044806F07FF93046BDE8704001F0F0BEB1
:104BE00070BD00BFE0D9002038B504460D46D9B1EC
:104BF00000F65845284601F0F2FE40B3284601F081
:104C0000F3FE20B31248134906F056FA042384F841
:104C10004C3C284601F0D9FE94F83C3DBBB10C4811
:104C2000BDE8384006F076B90B4802F083F9294612
:104C3000094802F08BF90949054806F03DFA0323BB
:104C400084F84C3C04F6784001F0BAFEE4E738BD45
:104C5000E0D90020BB480108908A0020CF48010815
:104C600070B5044600F678450E4699B10121144806
:104C700002F060F90121124802F068F91148124966
:104C800006F01AFA022384F84C3C2846BDE870402E
:104C900001F09BBE284601F0A2FE78B1284601F043
:104CA000A3FE58B10949074806F006FA284684F8D9
:104CB0004C6C01F08AFE04F65840E7E770BD00BF77
:104CC000908A0020E0D900205A4901086F49010864
:104CD00038B50446A9B100F65845284601F07FFED4
:104CE000E0B1284601F080FEC0B10D480D4906F044
:104CF000E3F9092384F84C3C2846BDE8384001F02C
:104D000064BE0748084906F0D7F9082384F84C3CEC
:104D100004F67840BDE8384001F052BE38BD00BF0F
:104D2000E0D90020034901081849010810B50446DC
:104D300061B10848084906F0BFF9072384F84C3CE4
:104D400004F67840BDE8104001F03FBEBDE81040D9
:104D5000FFF794BDE0D900208249010838B5044628
:104D60000D4699B90A4802F0E5F82946084802F0CC
:104D7000EDF80848084906F09FF9052384F84C3CF3
:104D800004F67840BDE8384001F01ABE38BD00BFD7
:104D9000908A0020E0D90020A248010870B504469E
:104DA00000F678450E4699B10121144802F0C2F888
:104DB0000121124802F0CAF81148124906F07CF9A4
:104DC000042384F84C3C2846BDE8704001F0FDBD4A
:104DD000284601F004FE78B1284601F005FE58B1DE
:104DE0000949074806F068F9284684F84C6C01F038
:104DF000ECFD04F65840E7E770BD00BF908A002044
:104E0000E0D90020BB4801086F49010810B50446ED
:104E100061B90748074906F04FF90A2384F84C3C6A
:104E200004F67840BDE8104001F0CABD10BD00BFD7
:104E3000E0D90020E948010810B5044661B10848EE
:104E4000084906F039F9092384F84C3C04F6784007
:104E5000BDE8104001F0B9BDBDE81040FFF70EBD40
:104E6000E0D900200349010838B500F5466504463D
:104E7000284601F0B4FD78B1284601F0B5FDA0B197
:104E80000A490B4806F018F9204601F0ACFC284608
:104E9000BDE8384001F094BD0548044906F00CF91E
:104EA0002046BDE8384001F09EBC38BD604801088E
:104EB000E0D9002070B5044600F668450E46E9B119
:104EC000284601F091FD002843D02249224806F0EF
:104ED000F3F8022384F84C3C284601F076FD94F860
:104EE0004D3CB3B394F84F3C9BB32046FFF7BCFF57
:104EF00004F54560BDE8704001F062BD174802F05E
:104F000019F83146154802F021F81549124806F003
:104F1000D3F8284684F84C6C01F057FD04F658404D
:104F200001F053FD04F5476001F04FFD04F54560C5
:104F300001F04BFD04F6884001F047FD012384F8A1
:104F4000983C94F83C3D23B10348BDE8704005F01F
:104F5000E1BF70BD5A490108E0D90020908A0020C5
:104F60006F49010838B504460D4699B300F6584517
:104F7000284601F034FDD8B1284601F035FDB8B11E
:104F80001E491F4806F098F8042384F84C3C04F5A9
:104F9000476001F01AFD284601F017FD04F5446052
:104FA00001F0F4FC94F83C3D13B1154805F0B2FF54
:104FB00004F54565284601F012FDF0B1284601F0E0
:104FC00013FDD0B12046FFF74FFF2846BDE838401B
:104FD00001F0F6BC0B4801F0ADFF2946094801F08D
:104FE000B5FF0949064806F067F8032384F84C3CEE
:104FF00004F6784001F0E4FCD4E738BDBB48010872
:10500000E0D90020908A0020CF48010870B50446FE
:1050100000F6784529B301212B4801F08BFF0121CF
:10502000294801F093FF2948294906F045F8022351
:1050300084F84C3C284601F0C8FC04F54565284638
:1050400001F0CDFC00283ED0284601F0CDFC002820
:1050500039D02046FFF708FF2846BDE8704001F030
:10506000AFBC284601F0BBFC0028E6D0284601F082
:10507000BBFC0028E1D01548164906F01DF804F5E0
:1050800047660B2384F84C3C304601F0A8FC18B16D
:10509000304601F0A9FC50B10F490C4806F00CF85D
:1050A00004F5806001F09FFB304601F08EFC28463D
:1050B00001F08BFC04F6584001F087FC04F54860D1
:1050C00001F07EFCB9E770BD908A0020E0D9002095
:1050D0005A490108334901084149010870B504469D
:1050E00000F668450E46E1B1284601F07DFCA0B30C
:1050F0001A491B4805F0E0FF072384F84C3C28467A
:1051000001F063FC94F84D3C3BB394F84F3C23B35F
:105110002046FFF7A9FE04F54560BDE8704001F0A8
:105120004FBC10490E4805F0C7FF284684F84C6C68
:1051300001F04BFC04F6584001F047FC04F54760D1
:1051400001F043FC04F5456001F03FFC04F68840A3
:1051500001F03BFC012384F8983C70BD82490108B2
:10516000E0D900206F49010838B5044669B300F65C
:105170005845284601F033FCA8B1284601F034FC1C
:1051800088B11849184805F097FF092384F84C3C6A
:1051900004F5476001F019FC284601F016FC04F5FF
:1051A000446001F0F3FB04F54565284601F017FC67
:1051B000B8B1284601F018FC98B12046FFF754FE1C
:1051C0002846BDE8384001F0FBBB0849064805F019
:1051D00073FF082384F84C3C04F6784001F0F0FBA0
:1051E000E1E738BD03490108E0D90020184901086A
:1051F00070B5044600F67845E9B12848284905F01D
:105200005BFF072384F84C3C284601F0DEFB04F5E5
:105210004565284601F0E3FB00283ED0284601F012
:10522000E3FB002839D02046FFF71EFE2846BDE8E4
:10523000704001F0C5BB284601F0D1FB0028E6D044
:10524000284601F0D1FB0028E1D01448154905F0AB
:1052500033FF04F547660B2384F84C3C304601F0DD
:10526000BEFB18B1304601F0BFFB50B10E490B48F0
:1052700005F022FF04F5006001F0B5FA304601F0B8
:10528000A4FB284601F0A1FB04F6584001F09DFB69
:1052900004F5486001F094FBB9E770BDE0D9002047
:1052A00082490108334901084D49010838B50446CF
:1052B0000D46B9B9154801F03DFE2946134801F0E5
:1052C00045FE1349134805F0F7FE052384F84C3CCE
:1052D00094F84E3C13B12046FFF7C6FD04F6784023
:1052E00001F06EFB04F54565284601F078FB58B1E6
:1052F000284601F079FB38B12046FFF7B5FD284676
:10530000BDE8384001F05CBB38BD00BF908A00208A
:10531000A2480108E0D9002038B5044600F67845D7
:1053200021B30121284801F005FE0121264801F0A2
:105330000DFE2648264905F0BFFE042384F84C3CA8
:10534000284601F042FB04F54565284601F047FB7D
:10535000002838D0284601F047FBA0B32046FFF7CD
:1053600083FD2846BDE8384001F02ABB284601F0FD
:1053700036FB0028E7D0284601F036FB0028E2D0B3
:105380001449124805F098FE0B2384F84C3C04F5B0
:10539000446001F001FB10490C4805F08DFE04F556
:1053A000806001F020FA284601F00FFB04F5476009
:1053B00001F00BFB04F6584001F007FB04F54860D0
:1053C00001F0FEFABFE738BD908A0020E0D9002046
:1053D000BB480108334901084149010838B5044672
:1053E00051B90F480F4905F067FE0A2384F84C3C79
:1053F00004F6784001F0E4FA04F54565284601F02A
:10540000EEFA58B1284601F0EFFA38B12046FFF71E
:105410002BFD2846BDE8384001F0D2BA38BD00BFA8
:10542000E0D90020E948010838B5044600F678457F
:10543000E1B12548254905F03FFE092384F84C3C9D
:10544000284601F0C2FA04F54565284601F0C7FA7E
:10545000002838D0284601F0C7FAA0B32046FFF74D
:1054600003FD2846BDE8384001F0AABA284601F0FD
:10547000B6FA0028E7D0284601F0B6FA0028E2D0B4
:105480001349114805F018FE0B2384F84C3C04F531
:10549000446001F081FA0F490B4805F00DFE04F558
:1054A000006001F0A0F9284601F08FFA04F547608A
:1054B00001F08BFA04F6584001F087FA04F54860D1
:1054C00001F07EFABFE738BDE0D9002003490108AA
:1054D000334901084D49010810B5044600F658400B
:1054E00001F06EFA04F54760BDE8104001F068BABB
:1054F000F8B50446174600F5456571B301212E48FD
:1055000001F018FD01212C4801F020FD2B492C4809
:1055100005F0D2FD022384F84C3C2A49284805F0C6
:10552000CBFD04F5806001F045F904F5006001F061
:1055300041F92046FFF7D0FF284601F050FA002835
:1055400038D0284601F050FAA0B32046FFF78CFC73
:105550002846BDE8F84001F033BA2AB11A49184884
:1055600005F0AAFD0723D6E700F54866304601F0AE
:1055700036FA0028E0D0304601F036FA0028DBD0B9
:1055800012490F4805F098FD304684F84C7C01F034
:105590001CFA04F6884001F018FA94F84E3C13B156
:1055A0002046FFF761FC284601F00FFA012384F83A
:1055B000983CC1E7F8BD00BF908A00205A49010815
:1055C000E0D900206E480108824901086F490108AE
:1055D00008B500F5566001F0C9FAF023B0FBF3F00E
:1055E000C0B208BD08B500F5566001F028FA0020E9
:1055F00008BD037B10B503F0FF021BB10123437309
:10560000002010BD446803899BB224F8131003895D
:1056100001339BB2038103890188994298BF0281BB
:10562000028943899BB293424FF0010308BF037381
:105630001846E6E770B518254D43002400F554667A
:10564000AC4205D000213046FFF7D3FF0134F7E725
:1056500070BD00002DE9F041044600F08CFF04F518
:10566000806000F088FF04F5006000F084FF04F51E
:10567000406000F0F9FD04F5426000F093FE04F68E
:105680002840002501F0BDF804F5446001F04AF916
:10569000C4F84C5C04F5456001F081F904F658400B
:1056A00001F07DF904F5466001F079F904F66840EF
:1056B00001F075F904F5476001F071F904F67840DE
:1056C00001F06DF904F6884804F5486001F067F9C7
:1056D00004F54967404601F062F9384601F05FF988
:1056E0004FF43573C4F8AC3CC4F8B43C4FF4B56225
:1056F000484BC4F8B02CC4F8B83C474AC4F8D82C7E
:1057000045F26833C4F8BC3C444AC4F8DC2C4FF47E
:105710000043C4F8D03CC4F8F43CC4F8FC3C44F664
:105720006C223F4BC4F8E02CC4F8003D3D4AC4F85D
:10573000F82C47F6E423C4F8043D84F8985CC4F8D8
:10574000A45CC4F89C5CC4F8A85CC4F8A05CC4F871
:10575000D45CC4F8C85CC4F8C05CC4F8CC5CC4F8C1
:10576000C45CC4F8EC5CC4F8E45CC4F8F05CC4F855
:10577000E85C04F60850FFF737F801264FF00113F4
:105780004FF4C871C4F81C3DC4F8186D04F552609C
:1057900000F062FE40F66113A4F8485DA4F8403DB5
:1057A000A4F84A5D84F83C5DA4F83E6D84F84C5D35
:1057B00084F84D5D41F2C2200AF086FD4FF4166375
:1057C000A4F8503DA4F8585DC4F8440DA4F85A5DFF
:1057D00084F85D5D84F85C5D4FF496500AF074FDCA
:1057E000C4F8540D04F5566001F009F92A46314613
:1057F0004046A4F8805D01F0D6F896222946384646
:1058000001F0D1F820466421FFF714FF2046BDE8DF
:10581000F08100BFF96BFFFF0080FFFF5D3BFFFFE2
:10582000B505FFFF0000FFFF70B518254D430024AC
:1058300000F55566AC4205D000213046FFF7D9FE91
:105840000134F7E770BD000038B5044600294BD09D
:1058500000F66845284601F0AEF8C0B1404941481D
:1058600005F02AFC012384F84C3C284601F0A8F8F6
:1058700094F84D3C2BB194F84F3C13B92046FFF7F8
:10588000F3FA94F84C3C013B012B0BD938BD364957
:10589000344805F011FC022384F84C3C94F84D3C4C
:1058A000002BEBD132212046FFF7BEFF2046FFF749
:1058B00013FE04F5456001F083F804F5496001F03A
:1058C00084F80121294801F035FB0121274801F026
:1058D0003DFB04F6884001F073F894F84C1C214815
:1058E000BDE8384005F0F6BA002ACFD000F668458A
:1058F000284601F060F8C0B11D491A4805F0DCFBEC
:10590000062384F84C3C284601F05AF894F84D3CA4
:105910002BB194F84F3C13B92046FFF7A5FA94F841
:105920004C3C063B012BB1D80AE012490D4805F06A
:10593000C3FB072384F84C3C94F84D3C002BEBD17F
:1059400032212046FFF770FF2046FFF7C5FD04F522
:10595000456001F035F804F5496001F036F8B8E724
:1059600077480108E0D900205A490108908A0020B0
:105970008C4801088249010838B590F84C3C04462F
:105980000B2B0AD8DFE803F00635393D4145494E77
:1059900053585D622046FFF757FF94F84C3C3BBBE1
:1059A00004F5806000F00FFF10BB04F5006000F00C
:1059B0000AFFE8B9204600F006FFC8B904F54965BA
:1059C000284601F00CF828B994F8983C13B1284601
:1059D00000F0F6FF284601F002F848B1284601F031
:1059E00003F828B1284600F0F0FF002384F8983C23
:1059F00038BD2046FFF75EFACFE72046FFF7B2FA40
:105A0000CBE72046FFF702FBC7E72046FFF74EFC37
:105A1000C3E72046FFF780FCBFE711462046FFF7AB
:105A20005DFBBAE711462046FFF79EFBB5E711463E
:105A30002046FFF7DDFBB0E711462046FFF7CEFC1E
:105A4000ABE711462046FFF7EFFCA6E72046FFF73D
:105A50004FFDA2E710B5044609B31849184805F0F0
:105A60002BFB02230121174884F84C3C01F062FA19
:105A70000121144801F06AFA04F6584000F0A0FF32
:105A800004F5496000F0A1FF04F6884000F098FF9B
:105A900094F84C1C0A48BDE8104005F01BBA5AB1F6
:105AA0000949074805F008FB072384F84C3C3221DC
:105AB0002046FFF7B9FEDFE710BD00BF5A490108D5
:105AC000E0D90020908A00208249010838B590F87A
:105AD0004C3C04460A2B0AD8DFE803F00609272BC2
